{
  "_format": "hh-sol-artifact-1",
  "contractName": "Marketplace",
  "sourceName": "contracts/Marketplace.sol",
  "abi": [
    {
      "inputs": [
        {
          "internalType": "contract ERC721",
          "name": "_animalNftContract",
          "type": "address"
        }
      ],
      "stateMutability": "nonpayable",
      "type": "constructor"
    },
    {
      "anonymous": false,
      "inputs": [
        {
          "components": [
            {
              "internalType": "uint256",
              "name": "animalId",
              "type": "uint256"
            },
            {
              "internalType": "uint256",
              "name": "price",
              "type": "uint256"
            },
            {
              "internalType": "address",
              "name": "owner",
              "type": "address"
            }
          ],
          "indexed": false,
          "internalType": "struct Marketplace.Bid",
          "name": "bid",
          "type": "tuple"
        },
        {
          "indexed": false,
          "internalType": "address",
          "name": "buyer",
          "type": "address"
        }
      ],
      "name": "Bought",
      "type": "event"
    },
    {
      "anonymous": false,
      "inputs": [
        {
          "indexed": false,
          "internalType": "enum Marketplace.MarketplaceAction",
          "name": "action",
          "type": "uint8"
        },
        {
          "components": [
            {
              "internalType": "uint256",
              "name": "animalId",
              "type": "uint256"
            },
            {
              "internalType": "uint256",
              "name": "price",
              "type": "uint256"
            },
            {
              "internalType": "address",
              "name": "owner",
              "type": "address"
            }
          ],
          "indexed": false,
          "internalType": "struct Marketplace.Bid",
          "name": "bid",
          "type": "tuple"
        },
        {
          "indexed": false,
          "internalType": "address",
          "name": "sender",
          "type": "address"
        },
        {
          "indexed": false,
          "internalType": "uint256",
          "name": "date",
          "type": "uint256"
        }
      ],
      "name": "MarketplaceChange",
      "type": "event"
    },
    {
      "anonymous": false,
      "inputs": [
        {
          "components": [
            {
              "internalType": "uint256",
              "name": "animalId",
              "type": "uint256"
            },
            {
              "internalType": "uint256",
              "name": "price",
              "type": "uint256"
            },
            {
              "internalType": "address",
              "name": "owner",
              "type": "address"
            }
          ],
          "indexed": false,
          "internalType": "struct Marketplace.Bid",
          "name": "bid",
          "type": "tuple"
        },
        {
          "indexed": false,
          "internalType": "address",
          "name": "seller",
          "type": "address"
        }
      ],
      "name": "OnSale",
      "type": "event"
    },
    {
      "anonymous": false,
      "inputs": [
        {
          "components": [
            {
              "internalType": "uint256",
              "name": "animalId",
              "type": "uint256"
            },
            {
              "internalType": "uint256",
              "name": "price",
              "type": "uint256"
            },
            {
              "internalType": "address",
              "name": "owner",
              "type": "address"
            }
          ],
          "indexed": false,
          "internalType": "struct Marketplace.Bid",
          "name": "bid",
          "type": "tuple"
        }
      ],
      "name": "RemoveFromSale",
      "type": "event"
    },
    {
      "inputs": [
        {
          "internalType": "uint256",
          "name": "_animalId",
          "type": "uint256"
        }
      ],
      "name": "buy",
      "outputs": [],
      "stateMutability": "payable",
      "type": "function"
    },
    {
      "inputs": [
        {
          "internalType": "uint256",
          "name": "_animalId",
          "type": "uint256"
        }
      ],
      "name": "getBidForAnimalId",
      "outputs": [
        {
          "components": [
            {
              "internalType": "uint256",
              "name": "animalId",
              "type": "uint256"
            },
            {
              "internalType": "uint256",
              "name": "price",
              "type": "uint256"
            },
            {
              "internalType": "address",
              "name": "owner",
              "type": "address"
            }
          ],
          "internalType": "struct Marketplace.Bid",
          "name": "bid",
          "type": "tuple"
        }
      ],
      "stateMutability": "view",
      "type": "function"
    },
    {
      "inputs": [],
      "name": "getBids",
      "outputs": [
        {
          "components": [
            {
              "internalType": "uint256",
              "name": "animalId",
              "type": "uint256"
            },
            {
              "internalType": "uint256",
              "name": "price",
              "type": "uint256"
            },
            {
              "internalType": "address",
              "name": "owner",
              "type": "address"
            }
          ],
          "internalType": "struct Marketplace.Bid[]",
          "name": "",
          "type": "tuple[]"
        }
      ],
      "stateMutability": "view",
      "type": "function"
    },
    {
      "inputs": [
        {
          "internalType": "address",
          "name": "operator",
          "type": "address"
        },
        {
          "internalType": "address",
          "name": "from",
          "type": "address"
        },
        {
          "internalType": "uint256",
          "name": "tokenId",
          "type": "uint256"
        },
        {
          "internalType": "bytes",
          "name": "data",
          "type": "bytes"
        }
      ],
      "name": "onERC721Received",
      "outputs": [
        {
          "internalType": "bytes4",
          "name": "",
          "type": "bytes4"
        }
      ],
      "stateMutability": "nonpayable",
      "type": "function"
    },
    {
      "inputs": [
        {
          "internalType": "uint256",
          "name": "_animalId",
          "type": "uint256"
        },
        {
          "internalType": "uint256",
          "name": "_price",
          "type": "uint256"
        }
      ],
      "name": "putOnSale",
      "outputs": [],
      "stateMutability": "nonpayable",
      "type": "function"
    },
    {
      "inputs": [
        {
          "internalType": "uint256",
          "name": "_animalId",
          "type": "uint256"
        }
      ],
      "name": "removeFromSale",
      "outputs": [],
      "stateMutability": "nonpayable",
      "type": "function"
    }
  ],
  "bytecode": "0x60806040523480156200001157600080fd5b506040516200186b3803806200186b8339818101604052810190620000379190620000fc565b806000806101000a81548173ffffffffffffffffffffffffffffffffffffffff021916908373ffffffffffffffffffffffffffffffffffffffff160217905550506200012e565b600080fd5b600073ffffffffffffffffffffffffffffffffffffffff82169050919050565b6000620000b08262000083565b9050919050565b6000620000c482620000a3565b9050919050565b620000d681620000b7565b8114620000e257600080fd5b50565b600081519050620000f681620000cb565b92915050565b6000602082840312156200011557620001146200007e565b5b60006200012584828501620000e5565b91505092915050565b61172d806200013e6000396000f3fe6080604052600436106100555760003560e01c80631361a3b61461005a578063150b7a021461008357806336f7992b146100c0578063b81c78ec146100e9578063d96a094a14610114578063ed026e3814610130575b600080fd5b34801561006657600080fd5b50610081600480360381019061007c9190610d92565b61016d565b005b34801561008f57600080fd5b506100aa60048036038101906100a59190610e82565b61035e565b6040516100b79190610f45565b60405180910390f35b3480156100cc57600080fd5b506100e760048036038101906100e29190610f60565b610373565b005b3480156100f557600080fd5b506100fe610688565b60405161010b91906110af565b60405180910390f35b61012e60048036038101906101299190610d92565b610751565b005b34801561013c57600080fd5b5061015760048036038101906101529190610d92565b610a2f565b6040516101649190611113565b60405180910390f35b80600061017982610a2f565b60000151036101bd576040517f08c379a00000000000000000000000000000000000000000000000000000000081526004016101b49061118b565b60405180910390fd5b3373ffffffffffffffffffffffffffffffffffffffff166101dd83610a2f565b6040015173ffffffffffffffffffffffffffffffffffffffff1614610237576040517f08c379a000000000000000000000000000000000000000000000000000000000815260040161022e906111f7565b60405180910390fd5b600061024283610a2f565b905060008054906101000a900473ffffffffffffffffffffffffffffffffffffffff1673ffffffffffffffffffffffffffffffffffffffff166342842e0e30836040015184600001516040518463ffffffff1660e01b81526004016102a993929190611235565b600060405180830381600087803b1580156102c357600080fd5b505af11580156102d7573d6000803e3d6000fd5b505050506102e481610b26565b7fd369034eac8ecc7f27002dabb900e9a6b0e4dca75df68fc94f56494e35afeac1816040516103139190611113565b60405180910390a17feb7812579b9e36aac87361e3358036ab348872381382e70c8bef45440c44df97600182334260405161035194939291906112e3565b60405180910390a1505050565b600063150b7a0260e01b905095945050505050565b813373ffffffffffffffffffffffffffffffffffffffff1660008054906101000a900473ffffffffffffffffffffffffffffffffffffffff1673ffffffffffffffffffffffffffffffffffffffff16636352211e836040518263ffffffff1660e01b81526004016103e49190611328565b602060405180830381865afa158015610401573d6000803e3d6000fd5b505050506040513d601f19601f820116820180604052508101906104259190611358565b73ffffffffffffffffffffffffffffffffffffffff161461047b576040517f08c379a0000000000000000000000000000000000000000000000000000000008152600401610472906113d1565b60405180910390fd5b600082116104be576040517f08c379a00000000000000000000000000000000000000000000000000000000081526004016104b59061143d565b60405180910390fd5b60008054906101000a900473ffffffffffffffffffffffffffffffffffffffff1673ffffffffffffffffffffffffffffffffffffffff166342842e0e3330866040518463ffffffff1660e01b815260040161051b93929190611235565b600060405180830381600087803b15801561053557600080fd5b505af1158015610549573d6000803e3d6000fd5b50505050600060405180606001604052808581526020018481526020013373ffffffffffffffffffffffffffffffffffffffff1681525090506001819080600181540180825580915050600190039060005260206000209060030201600090919091909150600082015181600001556020820151816001015560408201518160020160006101000a81548173ffffffffffffffffffffffffffffffffffffffff021916908373ffffffffffffffffffffffffffffffffffffffff16021790555050507f01bb1e61a4144a580e8c21ca11b40d6ab31fe01774aeb0c1f29fd31027d31ef5813360405161063c92919061145d565b60405180910390a17feb7812579b9e36aac87361e3358036ab348872381382e70c8bef45440c44df97600082334260405161067a94939291906112e3565b60405180910390a150505050565b60606001805480602002602001604051908101604052809291908181526020016000905b82821015610748578382906000526020600020906003020160405180606001604052908160008201548152602001600182015481526020016002820160009054906101000a900473ffffffffffffffffffffffffffffffffffffffff1673ffffffffffffffffffffffffffffffffffffffff1673ffffffffffffffffffffffffffffffffffffffff1681525050815260200190600101906106ac565b50505050905090565b80600061075d82610a2f565b60000151036107a1576040517f08c379a00000000000000000000000000000000000000000000000000000000081526004016107989061118b565b60405180910390fd5b60006107ac83610a2f565b90503373ffffffffffffffffffffffffffffffffffffffff16816040015173ffffffffffffffffffffffffffffffffffffffff1603610820576040517f08c379a0000000000000000000000000000000000000000000000000000000008152600401610817906114d2565b60405180910390fd5b80602001513414610866576040517f08c379a000000000000000000000000000000000000000000000000000000000815260040161085d90611564565b60405180910390fd5b60008054906101000a900473ffffffffffffffffffffffffffffffffffffffff1673ffffffffffffffffffffffffffffffffffffffff166342842e0e303384600001516040518463ffffffff1660e01b81526004016108c793929190611235565b600060405180830381600087803b1580156108e157600080fd5b505af11580156108f5573d6000803e3d6000fd5b505050506000816040015173ffffffffffffffffffffffffffffffffffffffff1634604051610923906115b5565b60006040518083038185875af1925050503d8060008114610960576040519150601f19603f3d011682016040523d82523d6000602084013e610965565b606091505b50509050806109a9576040517f08c379a00000000000000000000000000000000000000000000000000000000081526004016109a090611616565b60405180910390fd5b6109b282610b26565b7fcab892bd0fd5e66e5653a1c607365529f8f8a4a2f6ff5229bc7701da8629d46b82336040516109e392919061145d565b60405180910390a17feb7812579b9e36aac87361e3358036ab348872381382e70c8bef45440c44df976002833342604051610a2194939291906112e3565b60405180910390a150505050565b610a37610d1b565b60005b600180549050811015610b1f578260018281548110610a5c57610a5b611636565b5b90600052602060002090600302016000015403610b125760018181548110610a8757610a86611636565b5b906000526020600020906003020160405180606001604052908160008201548152602001600182015481526020016002820160009054906101000a900473ffffffffffffffffffffffffffffffffffffffff1673ffffffffffffffffffffffffffffffffffffffff1673ffffffffffffffffffffffffffffffffffffffff1681525050915050610b21565b8080600101915050610a3a565b505b919050565b600080600090505b600180549050811015610cad578115610c0f5760018181548110610b5557610b54611636565b5b906000526020600020906003020160018083610b719190611694565b81548110610b8257610b81611636565b5b906000526020600020906003020160008201548160000155600182015481600101556002820160009054906101000a900473ffffffffffffffffffffffffffffffffffffffff168160020160006101000a81548173ffffffffffffffffffffffffffffffffffffffff021916908373ffffffffffffffffffffffffffffffffffffffff1602179055509050505b826000015160018281548110610c2857610c27611636565b5b90600052602060002090600302016000015403610ca05760018181548110610c5357610c52611636565b5b906000526020600020906003020160008082016000905560018201600090556002820160006101000a81549073ffffffffffffffffffffffffffffffffffffffff02191690555050600191505b8080600101915050610b2e565b508015610d17576001805480610cc657610cc56116c8565b5b600190038181906000526020600020906003020160008082016000905560018201600090556002820160006101000a81549073ffffffffffffffffffffffffffffffffffffffff0219169055505090555b5050565b60405180606001604052806000815260200160008152602001600073ffffffffffffffffffffffffffffffffffffffff1681525090565b600080fd5b600080fd5b6000819050919050565b610d6f81610d5c565b8114610d7a57600080fd5b50565b600081359050610d8c81610d66565b92915050565b600060208284031215610da857610da7610d52565b5b6000610db684828501610d7d565b91505092915050565b600073ffffffffffffffffffffffffffffffffffffffff82169050919050565b6000610dea82610dbf565b9050919050565b610dfa81610ddf565b8114610e0557600080fd5b50565b600081359050610e1781610df1565b92915050565b600080fd5b600080fd5b600080fd5b60008083601f840112610e4257610e41610e1d565b5b8235905067ffffffffffffffff811115610e5f57610e5e610e22565b5b602083019150836001820283011115610e7b57610e7a610e27565b5b9250929050565b600080600080600060808688031215610e9e57610e9d610d52565b5b6000610eac88828901610e08565b9550506020610ebd88828901610e08565b9450506040610ece88828901610d7d565b935050606086013567ffffffffffffffff811115610eef57610eee610d57565b5b610efb88828901610e2c565b92509250509295509295909350565b60007fffffffff0000000000000000000000000000000000000000000000000000000082169050919050565b610f3f81610f0a565b82525050565b6000602082019050610f5a6000830184610f36565b92915050565b60008060408385031215610f7757610f76610d52565b5b6000610f8585828601610d7d565b9250506020610f9685828601610d7d565b9150509250929050565b600081519050919050565b600082825260208201905092915050565b6000819050602082019050919050565b610fd581610d5c565b82525050565b610fe481610ddf565b82525050565b6060820160008201516110006000850182610fcc565b5060208201516110136020850182610fcc565b5060408201516110266040850182610fdb565b50505050565b60006110388383610fea565b60608301905092915050565b6000602082019050919050565b600061105c82610fa0565b6110668185610fab565b935061107183610fbc565b8060005b838110156110a2578151611089888261102c565b975061109483611044565b925050600181019050611075565b5085935050505092915050565b600060208201905081810360008301526110c98184611051565b905092915050565b6060820160008201516110e76000850182610fcc565b5060208201516110fa6020850182610fcc565b50604082015161110d6040850182610fdb565b50505050565b600060608201905061112860008301846110d1565b92915050565b600082825260208201905092915050565b7f5468697320616e696d616c206973206e6f74206f6e2073616c652e0000000000600082015250565b6000611175601b8361112e565b91506111808261113f565b602082019050919050565b600060208201905081810360008301526111a481611168565b9050919050565b7f4e6f7420746865206f776e6572206f6620746865206269640000000000000000600082015250565b60006111e160188361112e565b91506111ec826111ab565b602082019050919050565b60006020820190508181036000830152611210816111d4565b9050919050565b61122081610ddf565b82525050565b61122f81610d5c565b82525050565b600060608201905061124a6000830186611217565b6112576020830185611217565b6112646040830184611226565b949350505050565b7f4e487b7100000000000000000000000000000000000000000000000000000000600052602160045260246000fd5b600381106112ac576112ab61126c565b5b50565b60008190506112bd8261129b565b919050565b60006112cd826112af565b9050919050565b6112dd816112c2565b82525050565b600060c0820190506112f860008301876112d4565b61130560208301866110d1565b6113126080830185611217565b61131f60a0830184611226565b95945050505050565b600060208201905061133d6000830184611226565b92915050565b60008151905061135281610df1565b92915050565b60006020828403121561136e5761136d610d52565b5b600061137c84828501611343565b91505092915050565b7f4e6f74206f776e6572206f66207468697320746f6b656e2069642e0000000000600082015250565b60006113bb601b8361112e565b91506113c682611385565b602082019050919050565b600060208201905081810360008301526113ea816113ae565b9050919050565b7f5072696365206d7573742062652067726561746572207468616e20302e000000600082015250565b6000611427601d8361112e565b9150611432826113f1565b602082019050919050565b600060208201905081810360008301526114568161141a565b9050919050565b600060808201905061147260008301856110d1565b61147f6060830184611217565b9392505050565b7f43616e6e6f742062757920796f7572206f776e20626964000000000000000000600082015250565b60006114bc60178361112e565b91506114c782611486565b602082019050919050565b600060208201905081810360008301526114eb816114af565b9050919050565b7f53656e74206120646966666572656e7420616d6f756e74206f6620657468657260008201527f73207468616e2074686520616e696d616c207072696365000000000000000000602082015250565b600061154e60378361112e565b9150611559826114f2565b604082019050919050565b6000602082019050818103600083015261157d81611541565b9050919050565b600081905092915050565b50565b600061159f600083611584565b91506115aa8261158f565b600082019050919050565b60006115c082611592565b9150819050919050565b7f436f756c64206e6f742070617920746865206269640000000000000000000000600082015250565b600061160060158361112e565b915061160b826115ca565b602082019050919050565b6000602082019050818103600083015261162f816115f3565b9050919050565b7f4e487b7100000000000000000000000000000000000000000000000000000000600052603260045260246000fd5b7f4e487b7100000000000000000000000000000000000000000000000000000000600052601160045260246000fd5b600061169f82610d5c565b91506116aa83610d5c565b92508282039050818111156116c2576116c1611665565b5b92915050565b7f4e487b7100000000000000000000000000000000000000000000000000000000600052603160045260246000fdfea26469706673582212202c4e191f0b0132e94ddbefc8b614a0ed62007003d36d94358d0ec993e4765cd664736f6c63430008180033",
  "linkReferences": {},
  "deployedLinkReferences": {}
}