{
  "_format": "hh-sol-artifact-1",
  "contractName": "ZooPass",
  "sourceName": "contracts/ZooPass.sol",
  "abi": [
    {
      "inputs": [],
      "stateMutability": "nonpayable",
      "type": "constructor"
    },
    {
      "inputs": [
        {
          "internalType": "address",
          "name": "sender",
          "type": "address"
        },
        {
          "internalType": "uint256",
          "name": "tokenId",
          "type": "uint256"
        },
        {
          "internalType": "address",
          "name": "owner",
          "type": "address"
        }
      ],
      "name": "ERC721IncorrectOwner",
      "type": "error"
    },
    {
      "inputs": [
        {
          "internalType": "address",
          "name": "operator",
          "type": "address"
        },
        {
          "internalType": "uint256",
          "name": "tokenId",
          "type": "uint256"
        }
      ],
      "name": "ERC721InsufficientApproval",
      "type": "error"
    },
    {
      "inputs": [
        {
          "internalType": "address",
          "name": "approver",
          "type": "address"
        }
      ],
      "name": "ERC721InvalidApprover",
      "type": "error"
    },
    {
      "inputs": [
        {
          "internalType": "address",
          "name": "operator",
          "type": "address"
        }
      ],
      "name": "ERC721InvalidOperator",
      "type": "error"
    },
    {
      "inputs": [
        {
          "internalType": "address",
          "name": "owner",
          "type": "address"
        }
      ],
      "name": "ERC721InvalidOwner",
      "type": "error"
    },
    {
      "inputs": [
        {
          "internalType": "address",
          "name": "receiver",
          "type": "address"
        }
      ],
      "name": "ERC721InvalidReceiver",
      "type": "error"
    },
    {
      "inputs": [
        {
          "internalType": "address",
          "name": "sender",
          "type": "address"
        }
      ],
      "name": "ERC721InvalidSender",
      "type": "error"
    },
    {
      "inputs": [
        {
          "internalType": "uint256",
          "name": "tokenId",
          "type": "uint256"
        }
      ],
      "name": "ERC721NonexistentToken",
      "type": "error"
    },
    {
      "inputs": [
        {
          "internalType": "address",
          "name": "owner",
          "type": "address"
        }
      ],
      "name": "OwnableInvalidOwner",
      "type": "error"
    },
    {
      "inputs": [
        {
          "internalType": "address",
          "name": "account",
          "type": "address"
        }
      ],
      "name": "OwnableUnauthorizedAccount",
      "type": "error"
    },
    {
      "anonymous": false,
      "inputs": [
        {
          "indexed": true,
          "internalType": "address",
          "name": "owner",
          "type": "address"
        },
        {
          "indexed": true,
          "internalType": "address",
          "name": "approved",
          "type": "address"
        },
        {
          "indexed": true,
          "internalType": "uint256",
          "name": "tokenId",
          "type": "uint256"
        }
      ],
      "name": "Approval",
      "type": "event"
    },
    {
      "anonymous": false,
      "inputs": [
        {
          "indexed": true,
          "internalType": "address",
          "name": "owner",
          "type": "address"
        },
        {
          "indexed": true,
          "internalType": "address",
          "name": "operator",
          "type": "address"
        },
        {
          "indexed": false,
          "internalType": "bool",
          "name": "approved",
          "type": "bool"
        }
      ],
      "name": "ApprovalForAll",
      "type": "event"
    },
    {
      "anonymous": false,
      "inputs": [
        {
          "indexed": true,
          "internalType": "address",
          "name": "previousOwner",
          "type": "address"
        },
        {
          "indexed": true,
          "internalType": "address",
          "name": "newOwner",
          "type": "address"
        }
      ],
      "name": "OwnershipTransferred",
      "type": "event"
    },
    {
      "anonymous": false,
      "inputs": [
        {
          "indexed": true,
          "internalType": "address",
          "name": "from",
          "type": "address"
        },
        {
          "indexed": true,
          "internalType": "address",
          "name": "to",
          "type": "address"
        },
        {
          "indexed": true,
          "internalType": "uint256",
          "name": "tokenId",
          "type": "uint256"
        }
      ],
      "name": "Transfer",
      "type": "event"
    },
    {
      "inputs": [
        {
          "internalType": "address",
          "name": "to",
          "type": "address"
        },
        {
          "internalType": "uint256",
          "name": "tokenId",
          "type": "uint256"
        }
      ],
      "name": "approve",
      "outputs": [],
      "stateMutability": "nonpayable",
      "type": "function"
    },
    {
      "inputs": [
        {
          "internalType": "address",
          "name": "owner",
          "type": "address"
        }
      ],
      "name": "balanceOf",
      "outputs": [
        {
          "internalType": "uint256",
          "name": "",
          "type": "uint256"
        }
      ],
      "stateMutability": "view",
      "type": "function"
    },
    {
      "inputs": [
        {
          "internalType": "uint256",
          "name": "tokenId",
          "type": "uint256"
        }
      ],
      "name": "burn",
      "outputs": [],
      "stateMutability": "nonpayable",
      "type": "function"
    },
    {
      "inputs": [
        {
          "internalType": "address",
          "name": "_to",
          "type": "address"
        }
      ],
      "name": "buyZooPass",
      "outputs": [],
      "stateMutability": "payable",
      "type": "function"
    },
    {
      "inputs": [
        {
          "internalType": "uint256",
          "name": "_newPriceInWei",
          "type": "uint256"
        }
      ],
      "name": "changeZooPrice",
      "outputs": [],
      "stateMutability": "nonpayable",
      "type": "function"
    },
    {
      "inputs": [
        {
          "internalType": "uint256",
          "name": "tokenId",
          "type": "uint256"
        }
      ],
      "name": "getApproved",
      "outputs": [
        {
          "internalType": "address",
          "name": "",
          "type": "address"
        }
      ],
      "stateMutability": "view",
      "type": "function"
    },
    {
      "inputs": [
        {
          "internalType": "address",
          "name": "owner",
          "type": "address"
        },
        {
          "internalType": "address",
          "name": "operator",
          "type": "address"
        }
      ],
      "name": "isApprovedForAll",
      "outputs": [
        {
          "internalType": "bool",
          "name": "",
          "type": "bool"
        }
      ],
      "stateMutability": "view",
      "type": "function"
    },
    {
      "inputs": [],
      "name": "name",
      "outputs": [
        {
          "internalType": "string",
          "name": "",
          "type": "string"
        }
      ],
      "stateMutability": "view",
      "type": "function"
    },
    {
      "inputs": [],
      "name": "owner",
      "outputs": [
        {
          "internalType": "address",
          "name": "",
          "type": "address"
        }
      ],
      "stateMutability": "view",
      "type": "function"
    },
    {
      "inputs": [
        {
          "internalType": "uint256",
          "name": "tokenId",
          "type": "uint256"
        }
      ],
      "name": "ownerOf",
      "outputs": [
        {
          "internalType": "address",
          "name": "",
          "type": "address"
        }
      ],
      "stateMutability": "view",
      "type": "function"
    },
    {
      "inputs": [],
      "name": "renounceOwnership",
      "outputs": [],
      "stateMutability": "nonpayable",
      "type": "function"
    },
    {
      "inputs": [
        {
          "internalType": "address",
          "name": "from",
          "type": "address"
        },
        {
          "internalType": "address",
          "name": "to",
          "type": "address"
        },
        {
          "internalType": "uint256",
          "name": "tokenId",
          "type": "uint256"
        }
      ],
      "name": "safeTransferFrom",
      "outputs": [],
      "stateMutability": "nonpayable",
      "type": "function"
    },
    {
      "inputs": [
        {
          "internalType": "address",
          "name": "from",
          "type": "address"
        },
        {
          "internalType": "address",
          "name": "to",
          "type": "address"
        },
        {
          "internalType": "uint256",
          "name": "tokenId",
          "type": "uint256"
        },
        {
          "internalType": "bytes",
          "name": "data",
          "type": "bytes"
        }
      ],
      "name": "safeTransferFrom",
      "outputs": [],
      "stateMutability": "nonpayable",
      "type": "function"
    },
    {
      "inputs": [
        {
          "internalType": "address",
          "name": "operator",
          "type": "address"
        },
        {
          "internalType": "bool",
          "name": "approved",
          "type": "bool"
        }
      ],
      "name": "setApprovalForAll",
      "outputs": [],
      "stateMutability": "nonpayable",
      "type": "function"
    },
    {
      "inputs": [
        {
          "internalType": "bytes4",
          "name": "interfaceId",
          "type": "bytes4"
        }
      ],
      "name": "supportsInterface",
      "outputs": [
        {
          "internalType": "bool",
          "name": "",
          "type": "bool"
        }
      ],
      "stateMutability": "view",
      "type": "function"
    },
    {
      "inputs": [],
      "name": "symbol",
      "outputs": [
        {
          "internalType": "string",
          "name": "",
          "type": "string"
        }
      ],
      "stateMutability": "view",
      "type": "function"
    },
    {
      "inputs": [
        {
          "internalType": "uint256",
          "name": "tokenId",
          "type": "uint256"
        }
      ],
      "name": "tokenURI",
      "outputs": [
        {
          "internalType": "string",
          "name": "",
          "type": "string"
        }
      ],
      "stateMutability": "view",
      "type": "function"
    },
    {
      "inputs": [
        {
          "internalType": "address",
          "name": "from",
          "type": "address"
        },
        {
          "internalType": "address",
          "name": "to",
          "type": "address"
        },
        {
          "internalType": "uint256",
          "name": "tokenId",
          "type": "uint256"
        }
      ],
      "name": "transferFrom",
      "outputs": [],
      "stateMutability": "nonpayable",
      "type": "function"
    },
    {
      "inputs": [
        {
          "internalType": "address",
          "name": "newOwner",
          "type": "address"
        }
      ],
      "name": "transferOwnership",
      "outputs": [],
      "stateMutability": "nonpayable",
      "type": "function"
    },
    {
      "inputs": [],
      "name": "zooPassPrice",
      "outputs": [
        {
          "internalType": "uint256",
          "name": "",
          "type": "uint256"
        }
      ],
      "stateMutability": "view",
      "type": "function"
    }
  ],
  "bytecode": "0x6080604052670de0b6b3a76400006008553480156200001d57600080fd5b50336040518060400160405280600881526020017f5a6f6f20506173730000000000000000000000000000000000000000000000008152506040518060400160405280600581526020017f6b5041535300000000000000000000000000000000000000000000000000000081525081600090816200009c91906200047e565b508060019081620000ae91906200047e565b505050600073ffffffffffffffffffffffffffffffffffffffff168173ffffffffffffffffffffffffffffffffffffffff1603620001265760006040517f1e4fbdf70000000000000000000000000000000000000000000000000000000081526004016200011d9190620005aa565b60405180910390fd5b62000137816200013e60201b60201c565b50620005c7565b6000600660009054906101000a900473ffffffffffffffffffffffffffffffffffffffff16905081600660006101000a81548173ffffffffffffffffffffffffffffffffffffffff021916908373ffffffffffffffffffffffffffffffffffffffff1602179055508173ffffffffffffffffffffffffffffffffffffffff168173ffffffffffffffffffffffffffffffffffffffff167f8be0079c531659141344cd1fd0a4f28419497f9722a3daafe3b4186f6b6457e060405160405180910390a35050565b600081519050919050565b7f4e487b7100000000000000000000000000000000000000000000000000000000600052604160045260246000fd5b7f4e487b7100000000000000000000000000000000000000000000000000000000600052602260045260246000fd5b600060028204905060018216806200028657607f821691505b6020821081036200029c576200029b6200023e565b5b50919050565b60008190508160005260206000209050919050565b60006020601f8301049050919050565b600082821b905092915050565b600060088302620003067fffffffffffffffffffffffffffffffffffffffffffffffffffffffffffffffff82620002c7565b620003128683620002c7565b95508019841693508086168417925050509392505050565b6000819050919050565b6000819050919050565b60006200035f6200035962000353846200032a565b62000334565b6200032a565b9050919050565b6000819050919050565b6200037b836200033e565b620003936200038a8262000366565b848454620002d4565b825550505050565b600090565b620003aa6200039b565b620003b781848462000370565b505050565b5b81811015620003df57620003d3600082620003a0565b600181019050620003bd565b5050565b601f8211156200042e57620003f881620002a2565b6200040384620002b7565b8101602085101562000413578190505b6200042b6200042285620002b7565b830182620003bc565b50505b505050565b600082821c905092915050565b6000620004536000198460080262000433565b1980831691505092915050565b60006200046e838362000440565b9150826002028217905092915050565b620004898262000204565b67ffffffffffffffff811115620004a557620004a46200020f565b5b620004b182546200026d565b620004be828285620003e3565b600060209050601f831160018114620004f65760008415620004e1578287015190505b620004ed858262000460565b8655506200055d565b601f1984166200050686620002a2565b60005b82811015620005305784890151825560018201915060208501945060208101905062000509565b868310156200055057848901516200054c601f89168262000440565b8355505b6001600288020188555050505b505050505050565b600073ffffffffffffffffffffffffffffffffffffffff82169050919050565b6000620005928262000565565b9050919050565b620005a48162000585565b82525050565b6000602082019050620005c1600083018462000599565b92915050565b6124a280620005d76000396000f3fe60806040526004361061011f5760003560e01c8063715018a6116100a0578063b88d4fde11610064578063b88d4fde146103c2578063bd7aff23146103eb578063c87b56dd14610416578063e985e9c514610453578063f2fde38b146104905761011f565b8063715018a6146103035780638da5cb5b1461031a57806395d89b4114610345578063981de5ad14610370578063a22cb465146103995761011f565b806323b872dd116100e757806323b872dd1461020e57806342842e0e1461023757806342966c68146102605780636352211e1461028957806370a08231146102c65761011f565b806301ffc9a714610124578063021749451461016157806306fdde031461017d578063081812fc146101a8578063095ea7b3146101e5575b600080fd5b34801561013057600080fd5b5061014b60048036038101906101469190611b31565b6104b9565b6040516101589190611b79565b60405180910390f35b61017b60048036038101906101769190611bf2565b61059b565b005b34801561018957600080fd5b50610192610653565b60405161019f9190611caf565b60405180910390f35b3480156101b457600080fd5b506101cf60048036038101906101ca9190611d07565b6106e5565b6040516101dc9190611d43565b60405180910390f35b3480156101f157600080fd5b5061020c60048036038101906102079190611d5e565b610701565b005b34801561021a57600080fd5b5061023560048036038101906102309190611d9e565b610717565b005b34801561024357600080fd5b5061025e60048036038101906102599190611d9e565b610819565b005b34801561026c57600080fd5b5061028760048036038101906102829190611d07565b610839565b005b34801561029557600080fd5b506102b060048036038101906102ab9190611d07565b610850565b6040516102bd9190611d43565b60405180910390f35b3480156102d257600080fd5b506102ed60048036038101906102e89190611bf2565b610862565b6040516102fa9190611e00565b60405180910390f35b34801561030f57600080fd5b5061031861091c565b005b34801561032657600080fd5b5061032f610930565b60405161033c9190611d43565b60405180910390f35b34801561035157600080fd5b5061035a61095a565b6040516103679190611caf565b60405180910390f35b34801561037c57600080fd5b5061039760048036038101906103929190611d07565b6109ec565b005b3480156103a557600080fd5b506103c060048036038101906103bb9190611e47565b610a41565b005b3480156103ce57600080fd5b506103e960048036038101906103e49190611fbc565b610a57565b005b3480156103f757600080fd5b50610400610a74565b60405161040d9190611e00565b60405180910390f35b34801561042257600080fd5b5061043d60048036038101906104389190611d07565b610a7a565b60405161044a9190611caf565b60405180910390f35b34801561045f57600080fd5b5061047a6004803603810190610475919061203f565b610ae3565b6040516104879190611b79565b60405180910390f35b34801561049c57600080fd5b506104b760048036038101906104b29190611bf2565b610b77565b005b60007f80ac58cd000000000000000000000000000000000000000000000000000000007bffffffffffffffffffffffffffffffffffffffffffffffffffffffff1916827bffffffffffffffffffffffffffffffffffffffffffffffffffffffff1916148061058457507f5b5e139f000000000000000000000000000000000000000000000000000000007bffffffffffffffffffffffffffffffffffffffffffffffffffffffff1916827bffffffffffffffffffffffffffffffffffffffffffffffffffffffff1916145b80610594575061059382610bfd565b5b9050919050565b60006105a682610862565b146105e6576040517f08c379a00000000000000000000000000000000000000000000000000000000081526004016105dd906120cb565b60405180910390fd5b600854341461062a576040517f08c379a000000000000000000000000000000000000000000000000000000000815260040161062190612137565b60405180910390fd5b60006007600081548092919061063f90612186565b91905055905061064f8282610c67565b5050565b606060008054610662906121fd565b80601f016020809104026020016040519081016040528092919081815260200182805461068e906121fd565b80156106db5780601f106106b0576101008083540402835291602001916106db565b820191906000526020600020905b8154815290600101906020018083116106be57829003601f168201915b5050505050905090565b60006106f082610c85565b506106fa82610d0d565b9050919050565b610713828261070e610d4a565b610d52565b5050565b600073ffffffffffffffffffffffffffffffffffffffff168273ffffffffffffffffffffffffffffffffffffffff16036107895760006040517f64a0ae920000000000000000000000000000000000000000000000000000000081526004016107809190611d43565b60405180910390fd5b600061079d8383610798610d4a565b610d64565b90508373ffffffffffffffffffffffffffffffffffffffff168173ffffffffffffffffffffffffffffffffffffffff1614610813578382826040517f64283d7b00000000000000000000000000000000000000000000000000000000815260040161080a9392919061222e565b60405180910390fd5b50505050565b61083483838360405180602001604052806000815250610a57565b505050565b61084c600082610847610d4a565b610d64565b5050565b600061085b82610c85565b9050919050565b60008073ffffffffffffffffffffffffffffffffffffffff168273ffffffffffffffffffffffffffffffffffffffff16036108d55760006040517f89c62b640000000000000000000000000000000000000000000000000000000081526004016108cc9190611d43565b60405180910390fd5b600360008373ffffffffffffffffffffffffffffffffffffffff1673ffffffffffffffffffffffffffffffffffffffff168152602001908152602001600020549050919050565b610924610f7e565b61092e6000611005565b565b6000600660009054906101000a900473ffffffffffffffffffffffffffffffffffffffff16905090565b606060018054610969906121fd565b80601f0160208091040260200160405190810160405280929190818152602001828054610995906121fd565b80156109e25780601f106109b7576101008083540402835291602001916109e2565b820191906000526020600020905b8154815290600101906020018083116109c557829003601f168201915b5050505050905090565b6109f4610f7e565b60008111610a37576040517f08c379a0000000000000000000000000000000000000000000000000000000008152600401610a2e906122b1565b60405180910390fd5b8060088190555050565b610a53610a4c610d4a565b83836110cb565b5050565b610a62848484610717565b610a6e8484848461123a565b50505050565b60085481565b6060610a8582610c85565b506000610a906113f1565b90506000815111610ab05760405180602001604052806000815250610adb565b80610aba84611408565b604051602001610acb92919061230d565b6040516020818303038152906040525b915050919050565b6000600560008473ffffffffffffffffffffffffffffffffffffffff1673ffffffffffffffffffffffffffffffffffffffff16815260200190815260200160002060008373ffffffffffffffffffffffffffffffffffffffff1673ffffffffffffffffffffffffffffffffffffffff16815260200190815260200160002060009054906101000a900460ff16905092915050565b610b7f610f7e565b600073ffffffffffffffffffffffffffffffffffffffff168173ffffffffffffffffffffffffffffffffffffffff1603610bf15760006040517f1e4fbdf7000000000000000000000000000000000000000000000000000000008152600401610be89190611d43565b60405180910390fd5b610bfa81611005565b50565b60007f01ffc9a7000000000000000000000000000000000000000000000000000000007bffffffffffffffffffffffffffffffffffffffffffffffffffffffff1916827bffffffffffffffffffffffffffffffffffffffffffffffffffffffff1916149050919050565b610c818282604051806020016040528060008152506114d6565b5050565b600080610c91836114f2565b9050600073ffffffffffffffffffffffffffffffffffffffff168173ffffffffffffffffffffffffffffffffffffffff1603610d0457826040517f7e273289000000000000000000000000000000000000000000000000000000008152600401610cfb9190611e00565b60405180910390fd5b80915050919050565b60006004600083815260200190815260200160002060009054906101000a900473ffffffffffffffffffffffffffffffffffffffff169050919050565b600033905090565b610d5f838383600161152f565b505050565b600080610d70846114f2565b9050600073ffffffffffffffffffffffffffffffffffffffff168373ffffffffffffffffffffffffffffffffffffffff1614610db257610db18184866116f4565b5b600073ffffffffffffffffffffffffffffffffffffffff168173ffffffffffffffffffffffffffffffffffffffff1614610e4357610df460008560008061152f565b6001600360008373ffffffffffffffffffffffffffffffffffffffff1673ffffffffffffffffffffffffffffffffffffffff168152602001908152602001600020600082825403925050819055505b600073ffffffffffffffffffffffffffffffffffffffff168573ffffffffffffffffffffffffffffffffffffffff1614610ec6576001600360008773ffffffffffffffffffffffffffffffffffffffff1673ffffffffffffffffffffffffffffffffffffffff168152602001908152602001600020600082825401925050819055505b846002600086815260200190815260200160002060006101000a81548173ffffffffffffffffffffffffffffffffffffffff021916908373ffffffffffffffffffffffffffffffffffffffff160217905550838573ffffffffffffffffffffffffffffffffffffffff168273ffffffffffffffffffffffffffffffffffffffff167fddf252ad1be2c89b69c2b068fc378daa952ba7f163c4a11628f55a4df523b3ef60405160405180910390a4809150509392505050565b610f86610d4a565b73ffffffffffffffffffffffffffffffffffffffff16610fa4610930565b73ffffffffffffffffffffffffffffffffffffffff161461100357610fc7610d4a565b6040517f118cdaa7000000000000000000000000000000000000000000000000000000008152600401610ffa9190611d43565b60405180910390fd5b565b6000600660009054906101000a900473ffffffffffffffffffffffffffffffffffffffff16905081600660006101000a81548173ffffffffffffffffffffffffffffffffffffffff021916908373ffffffffffffffffffffffffffffffffffffffff1602179055508173ffffffffffffffffffffffffffffffffffffffff168173ffffffffffffffffffffffffffffffffffffffff167f8be0079c531659141344cd1fd0a4f28419497f9722a3daafe3b4186f6b6457e060405160405180910390a35050565b600073ffffffffffffffffffffffffffffffffffffffff168273ffffffffffffffffffffffffffffffffffffffff160361113c57816040517f5b08ba180000000000000000000000000000000000000000000000000000000081526004016111339190611d43565b60405180910390fd5b80600560008573ffffffffffffffffffffffffffffffffffffffff1673ffffffffffffffffffffffffffffffffffffffff16815260200190815260200160002060008473ffffffffffffffffffffffffffffffffffffffff1673ffffffffffffffffffffffffffffffffffffffff16815260200190815260200160002060006101000a81548160ff0219169083151502179055508173ffffffffffffffffffffffffffffffffffffffff168373ffffffffffffffffffffffffffffffffffffffff167f17307eab39ab6107e8899845ad3d59bd9653f200f220920489ca2b5937696c318360405161122d9190611b79565b60405180910390a3505050565b60008373ffffffffffffffffffffffffffffffffffffffff163b11156113eb578273ffffffffffffffffffffffffffffffffffffffff1663150b7a0261127e610d4a565b8685856040518563ffffffff1660e01b81526004016112a09493929190612386565b6020604051808303816000875af19250505080156112dc57506040513d601f19601f820116820180604052508101906112d991906123e7565b60015b611360573d806000811461130c576040519150601f19603f3d011682016040523d82523d6000602084013e611311565b606091505b50600081510361135857836040517f64a0ae9200000000000000000000000000000000000000000000000000000000815260040161134f9190611d43565b60405180910390fd5b805181602001fd5b63150b7a0260e01b7bffffffffffffffffffffffffffffffffffffffffffffffffffffffff1916817bffffffffffffffffffffffffffffffffffffffffffffffffffffffff1916146113e957836040517f64a0ae920000000000000000000000000000000000000000000000000000000081526004016113e09190611d43565b60405180910390fd5b505b50505050565b606060405180602001604052806000815250905090565b606060006001611417846117b8565b01905060008167ffffffffffffffff81111561143657611435611e91565b5b6040519080825280601f01601f1916602001820160405280156114685781602001600182028036833780820191505090505b509050600082602001820190505b6001156114cb578080600190039150507f3031323334353637383961626364656600000000000000000000000000000000600a86061a8153600a85816114bf576114be612414565b5b04945060008503611476575b819350505050919050565b6114e0838361190b565b6114ed600084848461123a565b505050565b60006002600083815260200190815260200160002060009054906101000a900473ffffffffffffffffffffffffffffffffffffffff169050919050565b80806115685750600073ffffffffffffffffffffffffffffffffffffffff168273ffffffffffffffffffffffffffffffffffffffff1614155b1561169c57600061157884610c85565b9050600073ffffffffffffffffffffffffffffffffffffffff168373ffffffffffffffffffffffffffffffffffffffff16141580156115e357508273ffffffffffffffffffffffffffffffffffffffff168173ffffffffffffffffffffffffffffffffffffffff1614155b80156115f657506115f48184610ae3565b155b1561163857826040517fa9fbf51f00000000000000000000000000000000000000000000000000000000815260040161162f9190611d43565b60405180910390fd5b811561169a57838573ffffffffffffffffffffffffffffffffffffffff168273ffffffffffffffffffffffffffffffffffffffff167f8c5be1e5ebec7d5bd14f71427d1e84f3dd0314c0f7b2291e5b200ac8c7c3b92560405160405180910390a45b505b836004600085815260200190815260200160002060006101000a81548173ffffffffffffffffffffffffffffffffffffffff021916908373ffffffffffffffffffffffffffffffffffffffff16021790555050505050565b6116ff838383611a04565b6117b357600073ffffffffffffffffffffffffffffffffffffffff168373ffffffffffffffffffffffffffffffffffffffff160361177457806040517f7e27328900000000000000000000000000000000000000000000000000000000815260040161176b9190611e00565b60405180910390fd5b81816040517f177e802f0000000000000000000000000000000000000000000000000000000081526004016117aa929190612443565b60405180910390fd5b505050565b600080600090507a184f03e93ff9f4daa797ed6e38ed64bf6a1f0100000000000000008310611816577a184f03e93ff9f4daa797ed6e38ed64bf6a1f010000000000000000838161180c5761180b612414565b5b0492506040810190505b6d04ee2d6d415b85acef81000000008310611853576d04ee2d6d415b85acef8100000000838161184957611848612414565b5b0492506020810190505b662386f26fc10000831061188257662386f26fc10000838161187857611877612414565b5b0492506010810190505b6305f5e10083106118ab576305f5e10083816118a1576118a0612414565b5b0492506008810190505b61271083106118d05761271083816118c6576118c5612414565b5b0492506004810190505b606483106118f357606483816118e9576118e8612414565b5b0492506002810190505b600a8310611902576001810190505b80915050919050565b600073ffffffffffffffffffffffffffffffffffffffff168273ffffffffffffffffffffffffffffffffffffffff160361197d5760006040517f64a0ae920000000000000000000000000000000000000000000000000000000081526004016119749190611d43565b60405180910390fd5b600061198b83836000610d64565b9050600073ffffffffffffffffffffffffffffffffffffffff168173ffffffffffffffffffffffffffffffffffffffff16146119ff5760006040517f73c6ac6e0000000000000000000000000000000000000000000000000000000081526004016119f69190611d43565b60405180910390fd5b505050565b60008073ffffffffffffffffffffffffffffffffffffffff168373ffffffffffffffffffffffffffffffffffffffff1614158015611abc57508273ffffffffffffffffffffffffffffffffffffffff168473ffffffffffffffffffffffffffffffffffffffff161480611a7d5750611a7c8484610ae3565b5b80611abb57508273ffffffffffffffffffffffffffffffffffffffff16611aa383610d0d565b73ffffffffffffffffffffffffffffffffffffffff16145b5b90509392505050565b6000604051905090565b600080fd5b600080fd5b60007fffffffff0000000000000000000000000000000000000000000000000000000082169050919050565b611b0e81611ad9565b8114611b1957600080fd5b50565b600081359050611b2b81611b05565b92915050565b600060208284031215611b4757611b46611acf565b5b6000611b5584828501611b1c565b91505092915050565b60008115159050919050565b611b7381611b5e565b82525050565b6000602082019050611b8e6000830184611b6a565b92915050565b600073ffffffffffffffffffffffffffffffffffffffff82169050919050565b6000611bbf82611b94565b9050919050565b611bcf81611bb4565b8114611bda57600080fd5b50565b600081359050611bec81611bc6565b92915050565b600060208284031215611c0857611c07611acf565b5b6000611c1684828501611bdd565b91505092915050565b600081519050919050565b600082825260208201905092915050565b60005b83811015611c59578082015181840152602081019050611c3e565b60008484015250505050565b6000601f19601f8301169050919050565b6000611c8182611c1f565b611c8b8185611c2a565b9350611c9b818560208601611c3b565b611ca481611c65565b840191505092915050565b60006020820190508181036000830152611cc98184611c76565b905092915050565b6000819050919050565b611ce481611cd1565b8114611cef57600080fd5b50565b600081359050611d0181611cdb565b92915050565b600060208284031215611d1d57611d1c611acf565b5b6000611d2b84828501611cf2565b91505092915050565b611d3d81611bb4565b82525050565b6000602082019050611d586000830184611d34565b92915050565b60008060408385031215611d7557611d74611acf565b5b6000611d8385828601611bdd565b9250506020611d9485828601611cf2565b9150509250929050565b600080600060608486031215611db757611db6611acf565b5b6000611dc586828701611bdd565b9350506020611dd686828701611bdd565b9250506040611de786828701611cf2565b9150509250925092565b611dfa81611cd1565b82525050565b6000602082019050611e156000830184611df1565b92915050565b611e2481611b5e565b8114611e2f57600080fd5b50565b600081359050611e4181611e1b565b92915050565b60008060408385031215611e5e57611e5d611acf565b5b6000611e6c85828601611bdd565b9250506020611e7d85828601611e32565b9150509250929050565b600080fd5b600080fd5b7f4e487b7100000000000000000000000000000000000000000000000000000000600052604160045260246000fd5b611ec982611c65565b810181811067ffffffffffffffff82111715611ee857611ee7611e91565b5b80604052505050565b6000611efb611ac5565b9050611f078282611ec0565b919050565b600067ffffffffffffffff821115611f2757611f26611e91565b5b611f3082611c65565b9050602081019050919050565b82818337600083830152505050565b6000611f5f611f5a84611f0c565b611ef1565b905082815260208101848484011115611f7b57611f7a611e8c565b5b611f86848285611f3d565b509392505050565b600082601f830112611fa357611fa2611e87565b5b8135611fb3848260208601611f4c565b91505092915050565b60008060008060808587031215611fd657611fd5611acf565b5b6000611fe487828801611bdd565b9450506020611ff587828801611bdd565b935050604061200687828801611cf2565b925050606085013567ffffffffffffffff81111561202757612026611ad4565b5b61203387828801611f8e565b91505092959194509250565b6000806040838503121561205657612055611acf565b5b600061206485828601611bdd565b925050602061207585828601611bdd565b9150509250929050565b7f596f7520616c726561647920686176652061205a6f6f20506173730000000000600082015250565b60006120b5601b83611c2a565b91506120c08261207f565b602082019050919050565b600060208201905081810360008301526120e4816120a8565b9050919050565b7f496e76616c696420707269636520706169640000000000000000000000000000600082015250565b6000612121601283611c2a565b915061212c826120eb565b602082019050919050565b6000602082019050818103600083015261215081612114565b9050919050565b7f4e487b7100000000000000000000000000000000000000000000000000000000600052601160045260246000fd5b600061219182611cd1565b91507fffffffffffffffffffffffffffffffffffffffffffffffffffffffffffffffff82036121c3576121c2612157565b5b600182019050919050565b7f4e487b7100000000000000000000000000000000000000000000000000000000600052602260045260246000fd5b6000600282049050600182168061221557607f821691505b602082108103612228576122276121ce565b5b50919050565b60006060820190506122436000830186611d34565b6122506020830185611df1565b61225d6040830184611d34565b949350505050565b7f50726963652063616e6e6f7420626520302e0000000000000000000000000000600082015250565b600061229b601283611c2a565b91506122a682612265565b602082019050919050565b600060208201905081810360008301526122ca8161228e565b9050919050565b600081905092915050565b60006122e782611c1f565b6122f181856122d1565b9350612301818560208601611c3b565b80840191505092915050565b600061231982856122dc565b915061232582846122dc565b91508190509392505050565b600081519050919050565b600082825260208201905092915050565b600061235882612331565b612362818561233c565b9350612372818560208601611c3b565b61237b81611c65565b840191505092915050565b600060808201905061239b6000830187611d34565b6123a86020830186611d34565b6123b56040830185611df1565b81810360608301526123c7818461234d565b905095945050505050565b6000815190506123e181611b05565b92915050565b6000602082840312156123fd576123fc611acf565b5b600061240b848285016123d2565b91505092915050565b7f4e487b7100000000000000000000000000000000000000000000000000000000600052601260045260246000fd5b60006040820190506124586000830185611d34565b6124656020830184611df1565b939250505056fea264697066735822122071f132fe5e08b85e662bcd765a66d8f9afe452c27a6c6c0cfab7294d1955462964736f6c63430008180033",
  "linkReferences": {},
  "deployedLinkReferences": {}
}