{
  "_format": "hh-sol-artifact-1",
  "contractName": "AnimalNFT",
  "sourceName": "contracts/AnimalNFT.sol",
  "abi": [
    {
      "inputs": [
        {
          "internalType": "address",
          "name": "_zooPassAddress",
          "type": "address"
        }
      ],
      "stateMutability": "nonpayable",
      "type": "constructor"
    },
    {
      "inputs": [],
      "name": "ERC721EnumerableForbiddenBatchMint",
      "type": "error"
    },
    {
      "inputs": [
        {
          "internalType": "address",
          "name": "sender",
          "type": "address"
        },
        {
          "internalType": "uint256",
          "name": "tokenId",
          "type": "uint256"
        },
        {
          "internalType": "address",
          "name": "owner",
          "type": "address"
        }
      ],
      "name": "ERC721IncorrectOwner",
      "type": "error"
    },
    {
      "inputs": [
        {
          "internalType": "address",
          "name": "operator",
          "type": "address"
        },
        {
          "internalType": "uint256",
          "name": "tokenId",
          "type": "uint256"
        }
      ],
      "name": "ERC721InsufficientApproval",
      "type": "error"
    },
    {
      "inputs": [
        {
          "internalType": "address",
          "name": "approver",
          "type": "address"
        }
      ],
      "name": "ERC721InvalidApprover",
      "type": "error"
    },
    {
      "inputs": [
        {
          "internalType": "address",
          "name": "operator",
          "type": "address"
        }
      ],
      "name": "ERC721InvalidOperator",
      "type": "error"
    },
    {
      "inputs": [
        {
          "internalType": "address",
          "name": "owner",
          "type": "address"
        }
      ],
      "name": "ERC721InvalidOwner",
      "type": "error"
    },
    {
      "inputs": [
        {
          "internalType": "address",
          "name": "receiver",
          "type": "address"
        }
      ],
      "name": "ERC721InvalidReceiver",
      "type": "error"
    },
    {
      "inputs": [
        {
          "internalType": "address",
          "name": "sender",
          "type": "address"
        }
      ],
      "name": "ERC721InvalidSender",
      "type": "error"
    },
    {
      "inputs": [
        {
          "internalType": "uint256",
          "name": "tokenId",
          "type": "uint256"
        }
      ],
      "name": "ERC721NonexistentToken",
      "type": "error"
    },
    {
      "inputs": [
        {
          "internalType": "address",
          "name": "owner",
          "type": "address"
        },
        {
          "internalType": "uint256",
          "name": "index",
          "type": "uint256"
        }
      ],
      "name": "ERC721OutOfBoundsIndex",
      "type": "error"
    },
    {
      "inputs": [
        {
          "internalType": "uint256",
          "name": "animalTokenId",
          "type": "uint256"
        }
      ],
      "name": "MaxChildrenReached",
      "type": "error"
    },
    {
      "inputs": [],
      "name": "NeedPremiumAccess",
      "type": "error"
    },
    {
      "inputs": [
        {
          "internalType": "address",
          "name": "owner",
          "type": "address"
        }
      ],
      "name": "OwnableInvalidOwner",
      "type": "error"
    },
    {
      "inputs": [
        {
          "internalType": "address",
          "name": "account",
          "type": "address"
        }
      ],
      "name": "OwnableUnauthorizedAccount",
      "type": "error"
    },
    {
      "inputs": [
        {
          "internalType": "string",
          "name": "race",
          "type": "string"
        }
      ],
      "name": "RaceAlreadyExisting",
      "type": "error"
    },
    {
      "anonymous": false,
      "inputs": [
        {
          "components": [
            {
              "internalType": "uint256",
              "name": "tokenId",
              "type": "uint256"
            },
            {
              "components": [
                {
                  "internalType": "string",
                  "name": "id",
                  "type": "string"
                },
                {
                  "internalType": "uint256",
                  "name": "maxChildrenCount",
                  "type": "uint256"
                },
                {
                  "internalType": "string",
                  "name": "metadataUri",
                  "type": "string"
                },
                {
                  "internalType": "bool",
                  "name": "isPremium",
                  "type": "bool"
                }
              ],
              "internalType": "struct AnimalNFT.Race",
              "name": "race",
              "type": "tuple"
            },
            {
              "internalType": "uint256",
              "name": "childCount",
              "type": "uint256"
            },
            {
              "internalType": "enum AnimalNFT.Gender",
              "name": "gender",
              "type": "uint8"
            }
          ],
          "indexed": false,
          "internalType": "struct AnimalNFT.Animal",
          "name": "animal",
          "type": "tuple"
        },
        {
          "indexed": false,
          "internalType": "uint256",
          "name": "tokenId",
          "type": "uint256"
        }
      ],
      "name": "AnimalCreated",
      "type": "event"
    },
    {
      "anonymous": false,
      "inputs": [
        {
          "indexed": true,
          "internalType": "address",
          "name": "owner",
          "type": "address"
        },
        {
          "indexed": true,
          "internalType": "address",
          "name": "approved",
          "type": "address"
        },
        {
          "indexed": true,
          "internalType": "uint256",
          "name": "tokenId",
          "type": "uint256"
        }
      ],
      "name": "Approval",
      "type": "event"
    },
    {
      "anonymous": false,
      "inputs": [
        {
          "indexed": true,
          "internalType": "address",
          "name": "owner",
          "type": "address"
        },
        {
          "indexed": true,
          "internalType": "address",
          "name": "operator",
          "type": "address"
        },
        {
          "indexed": false,
          "internalType": "bool",
          "name": "approved",
          "type": "bool"
        }
      ],
      "name": "ApprovalForAll",
      "type": "event"
    },
    {
      "anonymous": false,
      "inputs": [
        {
          "indexed": false,
          "internalType": "uint256",
          "name": "parentA",
          "type": "uint256"
        },
        {
          "indexed": false,
          "internalType": "uint256",
          "name": "parentB",
          "type": "uint256"
        }
      ],
      "name": "Breed",
      "type": "event"
    },
    {
      "anonymous": false,
      "inputs": [
        {
          "indexed": true,
          "internalType": "address",
          "name": "previousOwner",
          "type": "address"
        },
        {
          "indexed": true,
          "internalType": "address",
          "name": "newOwner",
          "type": "address"
        }
      ],
      "name": "OwnershipTransferred",
      "type": "event"
    },
    {
      "anonymous": false,
      "inputs": [
        {
          "components": [
            {
              "internalType": "string",
              "name": "id",
              "type": "string"
            },
            {
              "internalType": "uint256",
              "name": "maxChildrenCount",
              "type": "uint256"
            },
            {
              "internalType": "string",
              "name": "metadataUri",
              "type": "string"
            },
            {
              "internalType": "bool",
              "name": "isPremium",
              "type": "bool"
            }
          ],
          "indexed": false,
          "internalType": "struct AnimalNFT.Race",
          "name": "race",
          "type": "tuple"
        }
      ],
      "name": "RaceCreated",
      "type": "event"
    },
    {
      "anonymous": false,
      "inputs": [
        {
          "indexed": true,
          "internalType": "address",
          "name": "from",
          "type": "address"
        },
        {
          "indexed": true,
          "internalType": "address",
          "name": "to",
          "type": "address"
        },
        {
          "indexed": true,
          "internalType": "uint256",
          "name": "tokenId",
          "type": "uint256"
        }
      ],
      "name": "Transfer",
      "type": "event"
    },
    {
      "inputs": [
        {
          "internalType": "address",
          "name": "to",
          "type": "address"
        },
        {
          "internalType": "uint256",
          "name": "tokenId",
          "type": "uint256"
        }
      ],
      "name": "approve",
      "outputs": [],
      "stateMutability": "nonpayable",
      "type": "function"
    },
    {
      "inputs": [
        {
          "internalType": "address",
          "name": "owner",
          "type": "address"
        }
      ],
      "name": "balanceOf",
      "outputs": [
        {
          "internalType": "uint256",
          "name": "",
          "type": "uint256"
        }
      ],
      "stateMutability": "view",
      "type": "function"
    },
    {
      "inputs": [
        {
          "internalType": "uint256",
          "name": "tokenIdA",
          "type": "uint256"
        },
        {
          "internalType": "uint256",
          "name": "tokenIdB",
          "type": "uint256"
        }
      ],
      "name": "breedAnimals",
      "outputs": [],
      "stateMutability": "nonpayable",
      "type": "function"
    },
    {
      "inputs": [
        {
          "internalType": "uint256",
          "name": "tokenId",
          "type": "uint256"
        }
      ],
      "name": "burn",
      "outputs": [],
      "stateMutability": "nonpayable",
      "type": "function"
    },
    {
      "inputs": [
        {
          "internalType": "string",
          "name": "_raceId",
          "type": "string"
        },
        {
          "internalType": "uint256",
          "name": "_maxChildrenCount",
          "type": "uint256"
        },
        {
          "internalType": "string",
          "name": "_metadataUri",
          "type": "string"
        },
        {
          "internalType": "bool",
          "name": "_isPremium",
          "type": "bool"
        }
      ],
      "name": "createNewRace",
      "outputs": [],
      "stateMutability": "nonpayable",
      "type": "function"
    },
    {
      "inputs": [
        {
          "internalType": "uint256",
          "name": "_tokenId",
          "type": "uint256"
        }
      ],
      "name": "getAnimal",
      "outputs": [
        {
          "components": [
            {
              "internalType": "uint256",
              "name": "tokenId",
              "type": "uint256"
            },
            {
              "components": [
                {
                  "internalType": "string",
                  "name": "id",
                  "type": "string"
                },
                {
                  "internalType": "uint256",
                  "name": "maxChildrenCount",
                  "type": "uint256"
                },
                {
                  "internalType": "string",
                  "name": "metadataUri",
                  "type": "string"
                },
                {
                  "internalType": "bool",
                  "name": "isPremium",
                  "type": "bool"
                }
              ],
              "internalType": "struct AnimalNFT.Race",
              "name": "race",
              "type": "tuple"
            },
            {
              "internalType": "uint256",
              "name": "childCount",
              "type": "uint256"
            },
            {
              "internalType": "enum AnimalNFT.Gender",
              "name": "gender",
              "type": "uint8"
            }
          ],
          "internalType": "struct AnimalNFT.Animal",
          "name": "",
          "type": "tuple"
        }
      ],
      "stateMutability": "view",
      "type": "function"
    },
    {
      "inputs": [
        {
          "internalType": "address",
          "name": "_addr",
          "type": "address"
        }
      ],
      "name": "getAnimalsForAddress",
      "outputs": [
        {
          "components": [
            {
              "internalType": "uint256",
              "name": "tokenId",
              "type": "uint256"
            },
            {
              "components": [
                {
                  "internalType": "string",
                  "name": "id",
                  "type": "string"
                },
                {
                  "internalType": "uint256",
                  "name": "maxChildrenCount",
                  "type": "uint256"
                },
                {
                  "internalType": "string",
                  "name": "metadataUri",
                  "type": "string"
                },
                {
                  "internalType": "bool",
                  "name": "isPremium",
                  "type": "bool"
                }
              ],
              "internalType": "struct AnimalNFT.Race",
              "name": "race",
              "type": "tuple"
            },
            {
              "internalType": "uint256",
              "name": "childCount",
              "type": "uint256"
            },
            {
              "internalType": "enum AnimalNFT.Gender",
              "name": "gender",
              "type": "uint8"
            }
          ],
          "internalType": "struct AnimalNFT.Animal[]",
          "name": "",
          "type": "tuple[]"
        }
      ],
      "stateMutability": "view",
      "type": "function"
    },
    {
      "inputs": [
        {
          "internalType": "uint256",
          "name": "tokenId",
          "type": "uint256"
        }
      ],
      "name": "getApproved",
      "outputs": [
        {
          "internalType": "address",
          "name": "",
          "type": "address"
        }
      ],
      "stateMutability": "view",
      "type": "function"
    },
    {
      "inputs": [],
      "name": "getLastTokenId",
      "outputs": [
        {
          "internalType": "uint256",
          "name": "",
          "type": "uint256"
        }
      ],
      "stateMutability": "view",
      "type": "function"
    },
    {
      "inputs": [
        {
          "internalType": "string",
          "name": "_raceId",
          "type": "string"
        }
      ],
      "name": "getRaceById",
      "outputs": [
        {
          "components": [
            {
              "internalType": "string",
              "name": "id",
              "type": "string"
            },
            {
              "internalType": "uint256",
              "name": "maxChildrenCount",
              "type": "uint256"
            },
            {
              "internalType": "string",
              "name": "metadataUri",
              "type": "string"
            },
            {
              "internalType": "bool",
              "name": "isPremium",
              "type": "bool"
            }
          ],
          "internalType": "struct AnimalNFT.Race",
          "name": "race",
          "type": "tuple"
        }
      ],
      "stateMutability": "view",
      "type": "function"
    },
    {
      "inputs": [],
      "name": "getRaces",
      "outputs": [
        {
          "components": [
            {
              "internalType": "string",
              "name": "id",
              "type": "string"
            },
            {
              "internalType": "uint256",
              "name": "maxChildrenCount",
              "type": "uint256"
            },
            {
              "internalType": "string",
              "name": "metadataUri",
              "type": "string"
            },
            {
              "internalType": "bool",
              "name": "isPremium",
              "type": "bool"
            }
          ],
          "internalType": "struct AnimalNFT.Race[]",
          "name": "",
          "type": "tuple[]"
        }
      ],
      "stateMutability": "view",
      "type": "function"
    },
    {
      "inputs": [
        {
          "internalType": "address",
          "name": "owner",
          "type": "address"
        },
        {
          "internalType": "address",
          "name": "operator",
          "type": "address"
        }
      ],
      "name": "isApprovedForAll",
      "outputs": [
        {
          "internalType": "bool",
          "name": "",
          "type": "bool"
        }
      ],
      "stateMutability": "view",
      "type": "function"
    },
    {
      "inputs": [],
      "name": "name",
      "outputs": [
        {
          "internalType": "string",
          "name": "",
          "type": "string"
        }
      ],
      "stateMutability": "view",
      "type": "function"
    },
    {
      "inputs": [],
      "name": "owner",
      "outputs": [
        {
          "internalType": "address",
          "name": "",
          "type": "address"
        }
      ],
      "stateMutability": "view",
      "type": "function"
    },
    {
      "inputs": [
        {
          "internalType": "uint256",
          "name": "tokenId",
          "type": "uint256"
        }
      ],
      "name": "ownerOf",
      "outputs": [
        {
          "internalType": "address",
          "name": "",
          "type": "address"
        }
      ],
      "stateMutability": "view",
      "type": "function"
    },
    {
      "inputs": [],
      "name": "renounceOwnership",
      "outputs": [],
      "stateMutability": "nonpayable",
      "type": "function"
    },
    {
      "inputs": [
        {
          "internalType": "string",
          "name": "_raceId",
          "type": "string"
        }
      ],
      "name": "safeMintAnimal",
      "outputs": [],
      "stateMutability": "nonpayable",
      "type": "function"
    },
    {
      "inputs": [
        {
          "internalType": "address",
          "name": "from",
          "type": "address"
        },
        {
          "internalType": "address",
          "name": "to",
          "type": "address"
        },
        {
          "internalType": "uint256",
          "name": "tokenId",
          "type": "uint256"
        }
      ],
      "name": "safeTransferFrom",
      "outputs": [],
      "stateMutability": "nonpayable",
      "type": "function"
    },
    {
      "inputs": [
        {
          "internalType": "address",
          "name": "from",
          "type": "address"
        },
        {
          "internalType": "address",
          "name": "to",
          "type": "address"
        },
        {
          "internalType": "uint256",
          "name": "tokenId",
          "type": "uint256"
        },
        {
          "internalType": "bytes",
          "name": "data",
          "type": "bytes"
        }
      ],
      "name": "safeTransferFrom",
      "outputs": [],
      "stateMutability": "nonpayable",
      "type": "function"
    },
    {
      "inputs": [
        {
          "internalType": "address",
          "name": "operator",
          "type": "address"
        },
        {
          "internalType": "bool",
          "name": "approved",
          "type": "bool"
        }
      ],
      "name": "setApprovalForAll",
      "outputs": [],
      "stateMutability": "nonpayable",
      "type": "function"
    },
    {
      "inputs": [
        {
          "internalType": "bytes4",
          "name": "interfaceId",
          "type": "bytes4"
        }
      ],
      "name": "supportsInterface",
      "outputs": [
        {
          "internalType": "bool",
          "name": "",
          "type": "bool"
        }
      ],
      "stateMutability": "view",
      "type": "function"
    },
    {
      "inputs": [],
      "name": "symbol",
      "outputs": [
        {
          "internalType": "string",
          "name": "",
          "type": "string"
        }
      ],
      "stateMutability": "view",
      "type": "function"
    },
    {
      "inputs": [
        {
          "internalType": "uint256",
          "name": "index",
          "type": "uint256"
        }
      ],
      "name": "tokenByIndex",
      "outputs": [
        {
          "internalType": "uint256",
          "name": "",
          "type": "uint256"
        }
      ],
      "stateMutability": "view",
      "type": "function"
    },
    {
      "inputs": [
        {
          "internalType": "address",
          "name": "owner",
          "type": "address"
        },
        {
          "internalType": "uint256",
          "name": "index",
          "type": "uint256"
        }
      ],
      "name": "tokenOfOwnerByIndex",
      "outputs": [
        {
          "internalType": "uint256",
          "name": "",
          "type": "uint256"
        }
      ],
      "stateMutability": "view",
      "type": "function"
    },
    {
      "inputs": [
        {
          "internalType": "uint256",
          "name": "tokenId",
          "type": "uint256"
        }
      ],
      "name": "tokenURI",
      "outputs": [
        {
          "internalType": "string",
          "name": "",
          "type": "string"
        }
      ],
      "stateMutability": "view",
      "type": "function"
    },
    {
      "inputs": [],
      "name": "totalSupply",
      "outputs": [
        {
          "internalType": "uint256",
          "name": "",
          "type": "uint256"
        }
      ],
      "stateMutability": "view",
      "type": "function"
    },
    {
      "inputs": [
        {
          "internalType": "address",
          "name": "from",
          "type": "address"
        },
        {
          "internalType": "address",
          "name": "to",
          "type": "address"
        },
        {
          "internalType": "uint256",
          "name": "tokenId",
          "type": "uint256"
        }
      ],
      "name": "transferFrom",
      "outputs": [],
      "stateMutability": "nonpayable",
      "type": "function"
    },
    {
      "inputs": [
        {
          "internalType": "address",
          "name": "newOwner",
          "type": "address"
        }
      ],
      "name": "transferOwnership",
      "outputs": [],
      "stateMutability": "nonpayable",
      "type": "function"
    },
    {
      "inputs": [],
      "name": "zooPass",
      "outputs": [
        {
          "internalType": "contract ERC721",
          "name": "",
          "type": "address"
        }
      ],
      "stateMutability": "view",
      "type": "function"
    }
  ],
  "bytecode": "0x60806040523480156200001157600080fd5b506040516200521b3803806200521b8339818101604052810190620000379190620002d1565b336040518060400160405280600681526020017f416e696d616c00000000000000000000000000000000000000000000000000008152506040518060400160405280600781526020017f6b414e494d414c000000000000000000000000000000000000000000000000008152508160009081620000b591906200057d565b508060019081620000c791906200057d565b505050600073ffffffffffffffffffffffffffffffffffffffff168173ffffffffffffffffffffffffffffffffffffffff16036200013f5760006040517f1e4fbdf700000000000000000000000000000000000000000000000000000000815260040162000136919062000675565b60405180910390fd5b6200015081620001a160201b60201c565b506001600c8190555080600b60006101000a81548173ffffffffffffffffffffffffffffffffffffffff021916908373ffffffffffffffffffffffffffffffffffffffff1602179055505062000692565b6000600a60009054906101000a900473ffffffffffffffffffffffffffffffffffffffff16905081600a60006101000a81548173ffffffffffffffffffffffffffffffffffffffff021916908373ffffffffffffffffffffffffffffffffffffffff1602179055508173ffffffffffffffffffffffffffffffffffffffff168173ffffffffffffffffffffffffffffffffffffffff167f8be0079c531659141344cd1fd0a4f28419497f9722a3daafe3b4186f6b6457e060405160405180910390a35050565b600080fd5b600073ffffffffffffffffffffffffffffffffffffffff82169050919050565b600062000299826200026c565b9050919050565b620002ab816200028c565b8114620002b757600080fd5b50565b600081519050620002cb81620002a0565b92915050565b600060208284031215620002ea57620002e962000267565b5b6000620002fa84828501620002ba565b91505092915050565b600081519050919050565b7f4e487b7100000000000000000000000000000000000000000000000000000000600052604160045260246000fd5b7f4e487b7100000000000000000000000000000000000000000000000000000000600052602260045260246000fd5b600060028204905060018216806200038557607f821691505b6020821081036200039b576200039a6200033d565b5b50919050565b60008190508160005260206000209050919050565b60006020601f8301049050919050565b600082821b905092915050565b600060088302620004057fffffffffffffffffffffffffffffffffffffffffffffffffffffffffffffffff82620003c6565b620004118683620003c6565b95508019841693508086168417925050509392505050565b6000819050919050565b6000819050919050565b60006200045e62000458620004528462000429565b62000433565b62000429565b9050919050565b6000819050919050565b6200047a836200043d565b62000492620004898262000465565b848454620003d3565b825550505050565b600090565b620004a96200049a565b620004b68184846200046f565b505050565b5b81811015620004de57620004d26000826200049f565b600181019050620004bc565b5050565b601f8211156200052d57620004f781620003a1565b6200050284620003b6565b8101602085101562000512578190505b6200052a6200052185620003b6565b830182620004bb565b50505b505050565b600082821c905092915050565b6000620005526000198460080262000532565b1980831691505092915050565b60006200056d83836200053f565b9150826002028217905092915050565b620005888262000303565b67ffffffffffffffff811115620005a457620005a36200030e565b5b620005b082546200036c565b620005bd828285620004e2565b600060209050601f831160018114620005f55760008415620005e0578287015190505b620005ec85826200055f565b8655506200065c565b601f1984166200060586620003a1565b60005b828110156200062f5784890151825560018201915060208501945060208101905062000608565b868310156200064f57848901516200064b601f8916826200053f565b8355505b6001600288020188555050505b505050505050565b6200066f816200028c565b82525050565b60006020820190506200068c600083018462000664565b92915050565b614b7980620006a26000396000f3fe608060405234801561001057600080fd5b50600436106101cf5760003560e01c806351b8e14811610104578063a22cb465116100a2578063c87b56dd11610071578063c87b56dd14610540578063d75e197014610570578063e985e9c51461058c578063f2fde38b146105bc576101cf565b8063a22cb465146104ce578063a56baf16146104ea578063b88d4fde14610508578063c8272eff14610524576101cf565b8063715018a6116100de578063715018a61461046a57806383c4c00d146104745780638da5cb5b1461049257806395d89b41146104b0576101cf565b806351b8e148146103da5780636352211e1461040a57806370a082311461043a576101cf565b80632f745c591161017157806342842e0e1161014b57806342842e0e1461034257806342966c681461035e57806345d3cc811461037a5780634f6ccce7146103aa576101cf565b80632f745c59146102c657806330a86d86146102f65780633599af9014610312576101cf565b8063095ea7b3116101ad578063095ea7b31461025257806318160ddd1461026e57806320f9c9b41461028c57806323b872dd146102aa576101cf565b806301ffc9a7146101d457806306fdde0314610204578063081812fc14610222575b600080fd5b6101ee60048036038101906101e991906133d6565b6105d8565b6040516101fb919061341e565b60405180910390f35b61020c6105ea565b60405161021991906134c9565b60405180910390f35b61023c60048036038101906102379190613521565b61067c565b604051610249919061358f565b60405180910390f35b61026c600480360381019061026791906135d6565b610698565b005b6102766106ae565b6040516102839190613625565b60405180910390f35b6102946106bb565b6040516102a191906137d4565b60405180910390f35b6102c460048036038101906102bf91906137f6565b610863565b005b6102e060048036038101906102db91906135d6565b610965565b6040516102ed9190613625565b60405180910390f35b610310600480360381019061030b91906138da565b610a0e565b005b61032c60048036038101906103279190613ab1565b610c35565b6040516103399190613b64565b60405180910390f35b61035c600480360381019061035791906137f6565b610e9b565b005b61037860048036038101906103739190613521565b610ebb565b005b610394600480360381019061038f9190613521565b610ed2565b6040516103a19190613c60565b60405180910390f35b6103c460048036038101906103bf9190613521565b6110ab565b6040516103d19190613625565b60405180910390f35b6103f460048036038101906103ef9190613c82565b611121565b6040516104019190613dd4565b60405180910390f35b610424600480360381019061041f9190613521565b6113a2565b604051610431919061358f565b60405180910390f35b610454600480360381019061044f9190613c82565b6113b4565b6040516104619190613625565b60405180910390f35b61047261146e565b005b61047c611482565b6040516104899190613625565b60405180910390f35b61049a611498565b6040516104a7919061358f565b60405180910390f35b6104b86114c2565b6040516104c591906134c9565b60405180910390f35b6104e860048036038101906104e39190613df6565b611554565b005b6104f261156a565b6040516104ff9190613e95565b60405180910390f35b610522600480360381019061051d9190613f51565b611590565b005b61053e60048036038101906105399190613ab1565b6115ad565b005b61055a60048036038101906105559190613521565b6118be565b60405161056791906134c9565b60405180910390f35b61058a60048036038101906105859190613fd4565b611927565b005b6105a660048036038101906105a19190614014565b611d61565b6040516105b3919061341e565b60405180910390f35b6105d660048036038101906105d19190613c82565b611df5565b005b60006105e382611e7b565b9050919050565b6060600080546105f990614083565b80601f016020809104026020016040519081016040528092919081815260200182805461062590614083565b80156106725780601f1061064757610100808354040283529160200191610672565b820191906000526020600020905b81548152906001019060200180831161065557829003601f168201915b5050505050905090565b600061068782611ef5565b5061069182611f7d565b9050919050565b6106aa82826106a5611fba565b611fc2565b5050565b6000600880549050905090565b6060600e805480602002602001604051908101604052809291908181526020016000905b8282101561085a578382906000526020600020906004020160405180608001604052908160008201805461071290614083565b80601f016020809104026020016040519081016040528092919081815260200182805461073e90614083565b801561078b5780601f106107605761010080835404028352916020019161078b565b820191906000526020600020905b81548152906001019060200180831161076e57829003601f168201915b50505050508152602001600182015481526020016002820180546107ae90614083565b80601f01602080910402602001604051908101604052809291908181526020018280546107da90614083565b80156108275780601f106107fc57610100808354040283529160200191610827565b820191906000526020600020905b81548152906001019060200180831161080a57829003601f168201915b505050505081526020016003820160009054906101000a900460ff161515151581525050815260200190600101906106df565b50505050905090565b600073ffffffffffffffffffffffffffffffffffffffff168273ffffffffffffffffffffffffffffffffffffffff16036108d55760006040517f64a0ae920000000000000000000000000000000000000000000000000000000081526004016108cc919061358f565b60405180910390fd5b60006108e983836108e4611fba565b611fd4565b90508373ffffffffffffffffffffffffffffffffffffffff168173ffffffffffffffffffffffffffffffffffffffff161461095f578382826040517f64283d7b000000000000000000000000000000000000000000000000000000008152600401610956939291906140b4565b60405180910390fd5b50505050565b6000610970836113b4565b82106109b55782826040517fa57d13dc0000000000000000000000000000000000000000000000000000000081526004016109ac9291906140eb565b60405180910390fd5b600660008473ffffffffffffffffffffffffffffffffffffffff1673ffffffffffffffffffffffffffffffffffffffff168152602001908152602001600020600083815260200190815260200160002054905092915050565b610a16611fea565b610a7f610a6687878080601f016020809104026020016040519081016040528093929190818152602001838380828437600081840152601f19601f82011690508083019250505050505050610c35565b6000015160405180602001604052806000815250612071565b610ac25785856040517f78244a77000000000000000000000000000000000000000000000000000000008152600401610ab9929190614141565b60405180910390fd5b6000604051806080016040528088888080601f016020809104026020016040519081016040528093929190818152602001838380828437600081840152601f19601f82011690508083019250505050505050815260200186815260200185858080601f016020809104026020016040519081016040528093929190818152602001838380828437600081840152601f19601f8201169050808301925050505050505081526020018315158152509050600e8190806001815401808255809150506001900390600052602060002090600402016000909190919091506000820151816000019081610bb29190614307565b50602082015181600101556040820151816002019081610bd29190614307565b5060608201518160030160006101000a81548160ff02191690831515021790555050507f46175ad7182feae0688cf900420b69408f3b195a4032934a32e4df8c900a878281604051610c249190613b64565b60405180910390a150505050505050565b610c3d613300565b60005b600e80549050811015610e9457610d04600e8281548110610c6457610c636143d9565b5b90600052602060002090600402016000018054610c8090614083565b80601f0160208091040260200160405190810160405280929190818152602001828054610cac90614083565b8015610cf95780601f10610cce57610100808354040283529160200191610cf9565b820191906000526020600020905b815481529060010190602001808311610cdc57829003601f168201915b505050505084612071565b15610e8757600e8181548110610d1d57610d1c6143d9565b5b9060005260206000209060040201604051806080016040529081600082018054610d4690614083565b80601f0160208091040260200160405190810160405280929190818152602001828054610d7290614083565b8015610dbf5780601f10610d9457610100808354040283529160200191610dbf565b820191906000526020600020905b815481529060010190602001808311610da257829003601f168201915b5050505050815260200160018201548152602001600282018054610de290614083565b80601f0160208091040260200160405190810160405280929190818152602001828054610e0e90614083565b8015610e5b5780601f10610e3057610100808354040283529160200191610e5b565b820191906000526020600020905b815481529060010190602001808311610e3e57829003601f168201915b505050505081526020016003820160009054906101000a900460ff161515151581525050915050610e96565b8080600101915050610c40565b505b919050565b610eb683838360405180602001604052806000815250611590565b505050565b610ece600082610ec9611fba565b611fd4565b5050565b610eda61332a565b600d60008381526020019081526020016000206040518060800160405290816000820154815260200160018201604051806080016040529081600082018054610f2290614083565b80601f0160208091040260200160405190810160405280929190818152602001828054610f4e90614083565b8015610f9b5780601f10610f7057610100808354040283529160200191610f9b565b820191906000526020600020905b815481529060010190602001808311610f7e57829003601f168201915b5050505050815260200160018201548152602001600282018054610fbe90614083565b80601f0160208091040260200160405190810160405280929190818152602001828054610fea90614083565b80156110375780601f1061100c57610100808354040283529160200191611037565b820191906000526020600020905b81548152906001019060200180831161101a57829003601f168201915b505050505081526020016003820160009054906101000a900460ff1615151515815250508152602001600582015481526020016006820160009054906101000a900460ff16600181111561108e5761108d613b86565b5b60018111156110a05761109f613b86565b5b815250509050919050565b60006110b56106ae565b82106110fb576000826040517fa57d13dc0000000000000000000000000000000000000000000000000000000081526004016110f29291906140eb565b60405180910390fd5b6008828154811061110f5761110e6143d9565b5b90600052602060002001549050919050565b6060600061112e836113b4565b905060008167ffffffffffffffff81111561114c5761114b613986565b5b60405190808252806020026020018201604052801561118557816020015b61117261332a565b81526020019060019003908161116a5790505b50905060005b8281101561139757600061119f8683610965565b9050600d600082815260200190815260200160002060405180608001604052908160008201548152602001600182016040518060800160405290816000820180546111e990614083565b80601f016020809104026020016040519081016040528092919081815260200182805461121590614083565b80156112625780601f1061123757610100808354040283529160200191611262565b820191906000526020600020905b81548152906001019060200180831161124557829003601f168201915b505050505081526020016001820154815260200160028201805461128590614083565b80601f01602080910402602001604051908101604052809291908181526020018280546112b190614083565b80156112fe5780601f106112d3576101008083540402835291602001916112fe565b820191906000526020600020905b8154815290600101906020018083116112e157829003601f168201915b505050505081526020016003820160009054906101000a900460ff1615151515815250508152602001600582015481526020016006820160009054906101000a900460ff16600181111561135557611354613b86565b5b600181111561136757611366613b86565b5b8152505083838151811061137e5761137d6143d9565b5b602002602001018190525050808060010191505061118b565b508092505050919050565b60006113ad82611ef5565b9050919050565b60008073ffffffffffffffffffffffffffffffffffffffff168273ffffffffffffffffffffffffffffffffffffffff16036114275760006040517f89c62b6400000000000000000000000000000000000000000000000000000000815260040161141e919061358f565b60405180910390fd5b600360008373ffffffffffffffffffffffffffffffffffffffff1673ffffffffffffffffffffffffffffffffffffffff168152602001908152602001600020549050919050565b611476611fea565b6114806000612099565b565b60006001600c546114939190614437565b905090565b6000600a60009054906101000a900473ffffffffffffffffffffffffffffffffffffffff16905090565b6060600180546114d190614083565b80601f01602080910402602001604051908101604052809291908181526020018280546114fd90614083565b801561154a5780601f1061151f5761010080835404028352916020019161154a565b820191906000526020600020905b81548152906001019060200180831161152d57829003601f168201915b5050505050905090565b61156661155f611fba565b838361215f565b5050565b600b60009054906101000a900473ffffffffffffffffffffffffffffffffffffffff1681565b61159b848484610863565b6115a7848484846122ce565b50505050565b60006115b882610c35565b90506115df6115c683610c35565b6000015160405180602001604052806000815250612071565b1561161f576040517f08c379a0000000000000000000000000000000000000000000000000000000008152600401611616906144b7565b60405180910390fd5b60011515816060015115151480156116d257506000600b60009054906101000a900473ffffffffffffffffffffffffffffffffffffffff1673ffffffffffffffffffffffffffffffffffffffff166370a08231336040518263ffffffff1660e01b815260040161168f919061358f565b602060405180830381865afa1580156116ac573d6000803e3d6000fd5b505050506040513d601f19601f820116820180604052508101906116d091906144ec565b145b15611709576040517faa4ada6e00000000000000000000000000000000000000000000000000000000815260040160405180910390fd5b6000600c600081548092919061171e90614519565b91905055905060008060028542438660405160200161174094939291906145be565b6040516020818303038152906040528051906020012060001c6117639190614637565b1461176f576001611772565b60005b905061177e3383612485565b6040518060800160405280838152602001848152602001600081526020018260018111156117af576117ae613b86565b5b815250600d60008481526020019081526020016000206000820151816000015560208201518160010160008201518160000190816117ed9190614307565b5060208201518160010155604082015181600201908161180d9190614307565b5060608201518160030160006101000a81548160ff02191690831515021790555050506040820151816005015560608201518160060160006101000a81548160ff0219169083600181111561186557611864613b86565b5b02179055509050507f3d5cdedd97c92ab4bbe3e575ce1dab88abc1dba980c4ccec8f04f32e6b57be46600d6000848152602001908152602001600020836040516118b0929190614870565b60405180910390a150505050565b60606118c982611ef5565b5060006118d46124a3565b905060008151116118f4576040518060200160405280600081525061191f565b806118fe846124ba565b60405160200161190f9291906148a0565b6040516020818303038152906040525b915050919050565b611930826113a2565b73ffffffffffffffffffffffffffffffffffffffff163373ffffffffffffffffffffffffffffffffffffffff161461199d576040517f08c379a000000000000000000000000000000000000000000000000000000000815260040161199490614910565b60405180910390fd5b6119a6826113a2565b73ffffffffffffffffffffffffffffffffffffffff166119c5826113a2565b73ffffffffffffffffffffffffffffffffffffffff1614611a1b576040517f08c379a0000000000000000000000000000000000000000000000000000000008152600401611a129061497c565b60405180910390fd5b6000600d600084815260200190815260200160002090506000600d60008481526020019081526020016000209050611b71826001016000018054611a5e90614083565b80601f0160208091040260200160405190810160405280929190818152602001828054611a8a90614083565b8015611ad75780601f10611aac57610100808354040283529160200191611ad7565b820191906000526020600020905b815481529060010190602001808311611aba57829003601f168201915b5050505050826001016000018054611aee90614083565b80601f0160208091040260200160405190810160405280929190818152602001828054611b1a90614083565b8015611b675780601f10611b3c57610100808354040283529160200191611b67565b820191906000526020600020905b815481529060010190602001808311611b4a57829003601f168201915b5050505050612071565b611bb0576040517f08c379a0000000000000000000000000000000000000000000000000000000008152600401611ba7906149e8565b60405180910390fd5b8160010160010154826005015410611c035781600001546040517f520fb25b000000000000000000000000000000000000000000000000000000008152600401611bfa9190613625565b60405180910390fd5b8060010160010154816005015410611c565780600001546040517f520fb25b000000000000000000000000000000000000000000000000000000008152600401611c4d9190613625565b60405180910390fd5b816005016000815480929190611c6b90614519565b9190505550806005016000815480929190611c8590614519565b9190505550611d22826001016000018054611c9f90614083565b80601f0160208091040260200160405190810160405280929190818152602001828054611ccb90614083565b8015611d185780601f10611ced57610100808354040283529160200191611d18565b820191906000526020600020905b815481529060010190602001808311611cfb57829003601f168201915b50505050506115ad565b7f5130f5f5afb152b9a5156734a590d4df9ec94ef2bc69da003b695f5d3150e63f8484604051611d53929190614a08565b60405180910390a150505050565b6000600560008473ffffffffffffffffffffffffffffffffffffffff1673ffffffffffffffffffffffffffffffffffffffff16815260200190815260200160002060008373ffffffffffffffffffffffffffffffffffffffff1673ffffffffffffffffffffffffffffffffffffffff16815260200190815260200160002060009054906101000a900460ff16905092915050565b611dfd611fea565b600073ffffffffffffffffffffffffffffffffffffffff168173ffffffffffffffffffffffffffffffffffffffff1603611e6f5760006040517f1e4fbdf7000000000000000000000000000000000000000000000000000000008152600401611e66919061358f565b60405180910390fd5b611e7881612099565b50565b60007f780e9d63000000000000000000000000000000000000000000000000000000007bffffffffffffffffffffffffffffffffffffffffffffffffffffffff1916827bffffffffffffffffffffffffffffffffffffffffffffffffffffffff19161480611eee5750611eed82612588565b5b9050919050565b600080611f018361266a565b9050600073ffffffffffffffffffffffffffffffffffffffff168173ffffffffffffffffffffffffffffffffffffffff1603611f7457826040517f7e273289000000000000000000000000000000000000000000000000000000008152600401611f6b9190613625565b60405180910390fd5b80915050919050565b60006004600083815260200190815260200160002060009054906101000a900473ffffffffffffffffffffffffffffffffffffffff169050919050565b600033905090565b611fcf83838360016126a7565b505050565b6000611fe184848461286c565b90509392505050565b611ff2611fba565b73ffffffffffffffffffffffffffffffffffffffff16612010611498565b73ffffffffffffffffffffffffffffffffffffffff161461206f57612033611fba565b6040517f118cdaa7000000000000000000000000000000000000000000000000000000008152600401612066919061358f565b60405180910390fd5b565b600081518351148015612091575081805190602001208380519060200120145b905092915050565b6000600a60009054906101000a900473ffffffffffffffffffffffffffffffffffffffff16905081600a60006101000a81548173ffffffffffffffffffffffffffffffffffffffff021916908373ffffffffffffffffffffffffffffffffffffffff1602179055508173ffffffffffffffffffffffffffffffffffffffff168173ffffffffffffffffffffffffffffffffffffffff167f8be0079c531659141344cd1fd0a4f28419497f9722a3daafe3b4186f6b6457e060405160405180910390a35050565b600073ffffffffffffffffffffffffffffffffffffffff168273ffffffffffffffffffffffffffffffffffffffff16036121d057816040517f5b08ba180000000000000000000000000000000000000000000000000000000081526004016121c7919061358f565b60405180910390fd5b80600560008573ffffffffffffffffffffffffffffffffffffffff1673ffffffffffffffffffffffffffffffffffffffff16815260200190815260200160002060008473ffffffffffffffffffffffffffffffffffffffff1673ffffffffffffffffffffffffffffffffffffffff16815260200190815260200160002060006101000a81548160ff0219169083151502179055508173ffffffffffffffffffffffffffffffffffffffff168373ffffffffffffffffffffffffffffffffffffffff167f17307eab39ab6107e8899845ad3d59bd9653f200f220920489ca2b5937696c31836040516122c1919061341e565b60405180910390a3505050565b60008373ffffffffffffffffffffffffffffffffffffffff163b111561247f578273ffffffffffffffffffffffffffffffffffffffff1663150b7a02612312611fba565b8685856040518563ffffffff1660e01b81526004016123349493929190614a86565b6020604051808303816000875af192505050801561237057506040513d601f19601f8201168201806040525081019061236d9190614ae7565b60015b6123f4573d80600081146123a0576040519150601f19603f3d011682016040523d82523d6000602084013e6123a5565b606091505b5060008151036123ec57836040517f64a0ae920000000000000000000000000000000000000000000000000000000081526004016123e3919061358f565b60405180910390fd5b805181602001fd5b63150b7a0260e01b7bffffffffffffffffffffffffffffffffffffffffffffffffffffffff1916817bffffffffffffffffffffffffffffffffffffffffffffffffffffffff19161461247d57836040517f64a0ae92000000000000000000000000000000000000000000000000000000008152600401612474919061358f565b60405180910390fd5b505b50505050565b61249f828260405180602001604052806000815250612989565b5050565b606060405180602001604052806000815250905090565b6060600060016124c9846129a5565b01905060008167ffffffffffffffff8111156124e8576124e7613986565b5b6040519080825280601f01601f19166020018201604052801561251a5781602001600182028036833780820191505090505b509050600082602001820190505b60011561257d578080600190039150507f3031323334353637383961626364656600000000000000000000000000000000600a86061a8153600a858161257157612570614608565b5b04945060008503612528575b819350505050919050565b60007f80ac58cd000000000000000000000000000000000000000000000000000000007bffffffffffffffffffffffffffffffffffffffffffffffffffffffff1916827bffffffffffffffffffffffffffffffffffffffffffffffffffffffff1916148061265357507f5b5e139f000000000000000000000000000000000000000000000000000000007bffffffffffffffffffffffffffffffffffffffffffffffffffffffff1916827bffffffffffffffffffffffffffffffffffffffffffffffffffffffff1916145b80612663575061266282612af8565b5b9050919050565b60006002600083815260200190815260200160002060009054906101000a900473ffffffffffffffffffffffffffffffffffffffff169050919050565b80806126e05750600073ffffffffffffffffffffffffffffffffffffffff168273ffffffffffffffffffffffffffffffffffffffff1614155b156128145760006126f084611ef5565b9050600073ffffffffffffffffffffffffffffffffffffffff168373ffffffffffffffffffffffffffffffffffffffff161415801561275b57508273ffffffffffffffffffffffffffffffffffffffff168173ffffffffffffffffffffffffffffffffffffffff1614155b801561276e575061276c8184611d61565b155b156127b057826040517fa9fbf51f0000000000000000000000000000000000000000000000000000000081526004016127a7919061358f565b60405180910390fd5b811561281257838573ffffffffffffffffffffffffffffffffffffffff168273ffffffffffffffffffffffffffffffffffffffff167f8c5be1e5ebec7d5bd14f71427d1e84f3dd0314c0f7b2291e5b200ac8c7c3b92560405160405180910390a45b505b836004600085815260200190815260200160002060006101000a81548173ffffffffffffffffffffffffffffffffffffffff021916908373ffffffffffffffffffffffffffffffffffffffff16021790555050505050565b60008061287a858585612b62565b9050600073ffffffffffffffffffffffffffffffffffffffff168173ffffffffffffffffffffffffffffffffffffffff16036128be576128b984612d7c565b6128fd565b8473ffffffffffffffffffffffffffffffffffffffff168173ffffffffffffffffffffffffffffffffffffffff16146128fc576128fb8185612dc5565b5b5b600073ffffffffffffffffffffffffffffffffffffffff168573ffffffffffffffffffffffffffffffffffffffff160361293f5761293a84612f26565b61297e565b8473ffffffffffffffffffffffffffffffffffffffff168173ffffffffffffffffffffffffffffffffffffffff161461297d5761297c8585612ff7565b5b5b809150509392505050565b6129938383613082565b6129a060008484846122ce565b505050565b600080600090507a184f03e93ff9f4daa797ed6e38ed64bf6a1f0100000000000000008310612a03577a184f03e93ff9f4daa797ed6e38ed64bf6a1f01000000000000000083816129f9576129f8614608565b5b0492506040810190505b6d04ee2d6d415b85acef81000000008310612a40576d04ee2d6d415b85acef81000000008381612a3657612a35614608565b5b0492506020810190505b662386f26fc100008310612a6f57662386f26fc100008381612a6557612a64614608565b5b0492506010810190505b6305f5e1008310612a98576305f5e1008381612a8e57612a8d614608565b5b0492506008810190505b6127108310612abd576127108381612ab357612ab2614608565b5b0492506004810190505b60648310612ae05760648381612ad657612ad5614608565b5b0492506002810190505b600a8310612aef576001810190505b80915050919050565b60007f01ffc9a7000000000000000000000000000000000000000000000000000000007bffffffffffffffffffffffffffffffffffffffffffffffffffffffff1916827bffffffffffffffffffffffffffffffffffffffffffffffffffffffff1916149050919050565b600080612b6e8461266a565b9050600073ffffffffffffffffffffffffffffffffffffffff168373ffffffffffffffffffffffffffffffffffffffff1614612bb057612baf81848661317b565b5b600073ffffffffffffffffffffffffffffffffffffffff168173ffffffffffffffffffffffffffffffffffffffff1614612c4157612bf26000856000806126a7565b6001600360008373ffffffffffffffffffffffffffffffffffffffff1673ffffffffffffffffffffffffffffffffffffffff168152602001908152602001600020600082825403925050819055505b600073ffffffffffffffffffffffffffffffffffffffff168573ffffffffffffffffffffffffffffffffffffffff1614612cc4576001600360008773ffffffffffffffffffffffffffffffffffffffff1673ffffffffffffffffffffffffffffffffffffffff168152602001908152602001600020600082825401925050819055505b846002600086815260200190815260200160002060006101000a81548173ffffffffffffffffffffffffffffffffffffffff021916908373ffffffffffffffffffffffffffffffffffffffff160217905550838573ffffffffffffffffffffffffffffffffffffffff168273ffffffffffffffffffffffffffffffffffffffff167fddf252ad1be2c89b69c2b068fc378daa952ba7f163c4a11628f55a4df523b3ef60405160405180910390a4809150509392505050565b6008805490506009600083815260200190815260200160002081905550600881908060018154018082558091505060019003906000526020600020016000909190919091505550565b6000612dd0836113b4565b9050600060076000848152602001908152602001600020549050818114612eb5576000600660008673ffffffffffffffffffffffffffffffffffffffff1673ffffffffffffffffffffffffffffffffffffffff168152602001908152602001600020600084815260200190815260200160002054905080600660008773ffffffffffffffffffffffffffffffffffffffff1673ffffffffffffffffffffffffffffffffffffffff168152602001908152602001600020600084815260200190815260200160002081905550816007600083815260200190815260200160002081905550505b6007600084815260200190815260200160002060009055600660008573ffffffffffffffffffffffffffffffffffffffff1673ffffffffffffffffffffffffffffffffffffffff16815260200190815260200160002060008381526020019081526020016000206000905550505050565b60006001600880549050612f3a9190614437565b9050600060096000848152602001908152602001600020549050600060088381548110612f6a57612f696143d9565b5b906000526020600020015490508060088381548110612f8c57612f8b6143d9565b5b906000526020600020018190555081600960008381526020019081526020016000208190555060096000858152602001908152602001600020600090556008805480612fdb57612fda614b14565b5b6001900381819060005260206000200160009055905550505050565b60006001613004846113b4565b61300e9190614437565b905081600660008573ffffffffffffffffffffffffffffffffffffffff1673ffffffffffffffffffffffffffffffffffffffff168152602001908152602001600020600083815260200190815260200160002081905550806007600084815260200190815260200160002081905550505050565b600073ffffffffffffffffffffffffffffffffffffffff168273ffffffffffffffffffffffffffffffffffffffff16036130f45760006040517f64a0ae920000000000000000000000000000000000000000000000000000000081526004016130eb919061358f565b60405180910390fd5b600061310283836000611fd4565b9050600073ffffffffffffffffffffffffffffffffffffffff168173ffffffffffffffffffffffffffffffffffffffff16146131765760006040517f73c6ac6e00000000000000000000000000000000000000000000000000000000815260040161316d919061358f565b60405180910390fd5b505050565b61318683838361323f565b61323a57600073ffffffffffffffffffffffffffffffffffffffff168373ffffffffffffffffffffffffffffffffffffffff16036131fb57806040517f7e2732890000000000000000000000000000000000000000000000000000000081526004016131f29190613625565b60405180910390fd5b81816040517f177e802f0000000000000000000000000000000000000000000000000000000081526004016132319291906140eb565b60405180910390fd5b505050565b60008073ffffffffffffffffffffffffffffffffffffffff168373ffffffffffffffffffffffffffffffffffffffff16141580156132f757508273ffffffffffffffffffffffffffffffffffffffff168473ffffffffffffffffffffffffffffffffffffffff1614806132b857506132b78484611d61565b5b806132f657508273ffffffffffffffffffffffffffffffffffffffff166132de83611f7d565b73ffffffffffffffffffffffffffffffffffffffff16145b5b90509392505050565b60405180608001604052806060815260200160008152602001606081526020016000151581525090565b604051806080016040528060008152602001613344613300565b8152602001600081526020016000600181111561336457613363613b86565b5b81525090565b6000604051905090565b600080fd5b600080fd5b60007fffffffff0000000000000000000000000000000000000000000000000000000082169050919050565b6133b38161337e565b81146133be57600080fd5b50565b6000813590506133d0816133aa565b92915050565b6000602082840312156133ec576133eb613374565b5b60006133fa848285016133c1565b91505092915050565b60008115159050919050565b61341881613403565b82525050565b6000602082019050613433600083018461340f565b92915050565b600081519050919050565b600082825260208201905092915050565b60005b83811015613473578082015181840152602081019050613458565b60008484015250505050565b6000601f19601f8301169050919050565b600061349b82613439565b6134a58185613444565b93506134b5818560208601613455565b6134be8161347f565b840191505092915050565b600060208201905081810360008301526134e38184613490565b905092915050565b6000819050919050565b6134fe816134eb565b811461350957600080fd5b50565b60008135905061351b816134f5565b92915050565b60006020828403121561353757613536613374565b5b60006135458482850161350c565b91505092915050565b600073ffffffffffffffffffffffffffffffffffffffff82169050919050565b60006135798261354e565b9050919050565b6135898161356e565b82525050565b60006020820190506135a46000830184613580565b92915050565b6135b38161356e565b81146135be57600080fd5b50565b6000813590506135d0816135aa565b92915050565b600080604083850312156135ed576135ec613374565b5b60006135fb858286016135c1565b925050602061360c8582860161350c565b9150509250929050565b61361f816134eb565b82525050565b600060208201905061363a6000830184613616565b92915050565b600081519050919050565b600082825260208201905092915050565b6000819050602082019050919050565b600082825260208201905092915050565b600061368882613439565b613692818561366c565b93506136a2818560208601613455565b6136ab8161347f565b840191505092915050565b6136bf816134eb565b82525050565b6136ce81613403565b82525050565b600060808301600083015184820360008601526136f1828261367d565b915050602083015161370660208601826136b6565b506040830151848203604086015261371e828261367d565b915050606083015161373360608601826136c5565b508091505092915050565b600061374a83836136d4565b905092915050565b6000602082019050919050565b600061376a82613640565b613774818561364b565b9350836020820285016137868561365c565b8060005b858110156137c257848403895281516137a3858261373e565b94506137ae83613752565b925060208a0199505060018101905061378a565b50829750879550505050505092915050565b600060208201905081810360008301526137ee818461375f565b905092915050565b60008060006060848603121561380f5761380e613374565b5b600061381d868287016135c1565b935050602061382e868287016135c1565b925050604061383f8682870161350c565b9150509250925092565b600080fd5b600080fd5b600080fd5b60008083601f84011261386e5761386d613849565b5b8235905067ffffffffffffffff81111561388b5761388a61384e565b5b6020830191508360018202830111156138a7576138a6613853565b5b9250929050565b6138b781613403565b81146138c257600080fd5b50565b6000813590506138d4816138ae565b92915050565b600080600080600080608087890312156138f7576138f6613374565b5b600087013567ffffffffffffffff81111561391557613914613379565b5b61392189828a01613858565b9650965050602061393489828a0161350c565b945050604087013567ffffffffffffffff81111561395557613954613379565b5b61396189828a01613858565b9350935050606061397489828a016138c5565b9150509295509295509295565b600080fd5b7f4e487b7100000000000000000000000000000000000000000000000000000000600052604160045260246000fd5b6139be8261347f565b810181811067ffffffffffffffff821117156139dd576139dc613986565b5b80604052505050565b60006139f061336a565b90506139fc82826139b5565b919050565b600067ffffffffffffffff821115613a1c57613a1b613986565b5b613a258261347f565b9050602081019050919050565b82818337600083830152505050565b6000613a54613a4f84613a01565b6139e6565b905082815260208101848484011115613a7057613a6f613981565b5b613a7b848285613a32565b509392505050565b600082601f830112613a9857613a97613849565b5b8135613aa8848260208601613a41565b91505092915050565b600060208284031215613ac757613ac6613374565b5b600082013567ffffffffffffffff811115613ae557613ae4613379565b5b613af184828501613a83565b91505092915050565b60006080830160008301518482036000860152613b17828261367d565b9150506020830151613b2c60208601826136b6565b5060408301518482036040860152613b44828261367d565b9150506060830151613b5960608601826136c5565b508091505092915050565b60006020820190508181036000830152613b7e8184613afa565b905092915050565b7f4e487b7100000000000000000000000000000000000000000000000000000000600052602160045260246000fd5b60028110613bc657613bc5613b86565b5b50565b6000819050613bd782613bb5565b919050565b6000613be782613bc9565b9050919050565b613bf781613bdc565b82525050565b6000608083016000830151613c1560008601826136b6565b5060208301518482036020860152613c2d82826136d4565b9150506040830151613c4260408601826136b6565b506060830151613c556060860182613bee565b508091505092915050565b60006020820190508181036000830152613c7a8184613bfd565b905092915050565b600060208284031215613c9857613c97613374565b5b6000613ca6848285016135c1565b91505092915050565b600081519050919050565b600082825260208201905092915050565b6000819050602082019050919050565b6000608083016000830151613cf360008601826136b6565b5060208301518482036020860152613d0b82826136d4565b9150506040830151613d2060408601826136b6565b506060830151613d336060860182613bee565b508091505092915050565b6000613d4a8383613cdb565b905092915050565b6000602082019050919050565b6000613d6a82613caf565b613d748185613cba565b935083602082028501613d8685613ccb565b8060005b85811015613dc25784840389528151613da38582613d3e565b9450613dae83613d52565b925060208a01995050600181019050613d8a565b50829750879550505050505092915050565b60006020820190508181036000830152613dee8184613d5f565b905092915050565b60008060408385031215613e0d57613e0c613374565b5b6000613e1b858286016135c1565b9250506020613e2c858286016138c5565b9150509250929050565b6000819050919050565b6000613e5b613e56613e518461354e565b613e36565b61354e565b9050919050565b6000613e6d82613e40565b9050919050565b6000613e7f82613e62565b9050919050565b613e8f81613e74565b82525050565b6000602082019050613eaa6000830184613e86565b92915050565b600067ffffffffffffffff821115613ecb57613eca613986565b5b613ed48261347f565b9050602081019050919050565b6000613ef4613eef84613eb0565b6139e6565b905082815260208101848484011115613f1057613f0f613981565b5b613f1b848285613a32565b509392505050565b600082601f830112613f3857613f37613849565b5b8135613f48848260208601613ee1565b91505092915050565b60008060008060808587031215613f6b57613f6a613374565b5b6000613f79878288016135c1565b9450506020613f8a878288016135c1565b9350506040613f9b8782880161350c565b925050606085013567ffffffffffffffff811115613fbc57613fbb613379565b5b613fc887828801613f23565b91505092959194509250565b60008060408385031215613feb57613fea613374565b5b6000613ff98582860161350c565b925050602061400a8582860161350c565b9150509250929050565b6000806040838503121561402b5761402a613374565b5b6000614039858286016135c1565b925050602061404a858286016135c1565b9150509250929050565b7f4e487b7100000000000000000000000000000000000000000000000000000000600052602260045260246000fd5b6000600282049050600182168061409b57607f821691505b6020821081036140ae576140ad614054565b5b50919050565b60006060820190506140c96000830186613580565b6140d66020830185613616565b6140e36040830184613580565b949350505050565b60006040820190506141006000830185613580565b61410d6020830184613616565b9392505050565b60006141208385613444565b935061412d838584613a32565b6141368361347f565b840190509392505050565b6000602082019050818103600083015261415c818486614114565b90509392505050565b60008190508160005260206000209050919050565b60006020601f8301049050919050565b600082821b905092915050565b6000600883026141c77fffffffffffffffffffffffffffffffffffffffffffffffffffffffffffffffff8261418a565b6141d1868361418a565b95508019841693508086168417925050509392505050565b60006142046141ff6141fa846134eb565b613e36565b6134eb565b9050919050565b6000819050919050565b61421e836141e9565b61423261422a8261420b565b848454614197565b825550505050565b600090565b61424761423a565b614252818484614215565b505050565b5b818110156142765761426b60008261423f565b600181019050614258565b5050565b601f8211156142bb5761428c81614165565b6142958461417a565b810160208510156142a4578190505b6142b86142b08561417a565b830182614257565b50505b505050565b600082821c905092915050565b60006142de600019846008026142c0565b1980831691505092915050565b60006142f783836142cd565b9150826002028217905092915050565b61431082613439565b67ffffffffffffffff81111561432957614328613986565b5b6143338254614083565b61433e82828561427a565b600060209050601f831160018114614371576000841561435f578287015190505b61436985826142eb565b8655506143d1565b601f19841661437f86614165565b60005b828110156143a757848901518255600182019150602085019450602081019050614382565b868310156143c457848901516143c0601f8916826142cd565b8355505b6001600288020188555050505b505050505050565b7f4e487b7100000000000000000000000000000000000000000000000000000000600052603260045260246000fd5b7f4e487b7100000000000000000000000000000000000000000000000000000000600052601160045260246000fd5b6000614442826134eb565b915061444d836134eb565b925082820390508181111561446557614464614408565b5b92915050565b7f556e646566696e65642072616365000000000000000000000000000000000000600082015250565b60006144a1600e83613444565b91506144ac8261446b565b602082019050919050565b600060208201905081810360008301526144d081614494565b9050919050565b6000815190506144e6816134f5565b92915050565b60006020828403121561450257614501613374565b5b6000614510848285016144d7565b91505092915050565b6000614524826134eb565b91507fffffffffffffffffffffffffffffffffffffffffffffffffffffffffffffffff820361455657614555614408565b5b600182019050919050565b600081905092915050565b600061457782613439565b6145818185614561565b9350614591818560208601613455565b80840191505092915050565b6000819050919050565b6145b86145b3826134eb565b61459d565b82525050565b60006145ca828761456c565b91506145d682866145a7565b6020820191506145e682856145a7565b6020820191506145f682846145a7565b60208201915081905095945050505050565b7f4e487b7100000000000000000000000000000000000000000000000000000000600052601260045260246000fd5b6000614642826134eb565b915061464d836134eb565b92508261465d5761465c614608565b5b828206905092915050565b60008160001c9050919050565b6000819050919050565b600061469261468d83614668565b614675565b9050919050565b600081546146a681614083565b6146b0818661366c565b945060018216600081146146cb57600181146146e157614714565b60ff198316865281151560200286019350614714565b6146ea85614165565b60005b8381101561470c578154818901526001820191506020810190506146ed565b808801955050505b50505092915050565b600060ff82169050919050565b600061473d61473883614668565b61471d565b9050919050565b600060808301600080840185830360008701526147618382614699565b925050600184015490506147748161467f565b61478160208701826136b6565b506002840185830360408701526147988382614699565b925050600384015490506147ab8161472a565b6147b860608701826136c5565b50819250505092915050565b600060ff82169050919050565b60006147e46147df83614668565b6147c4565b9050919050565b60006080830160008084015490506148028161467f565b61480f60008701826136b6565b506001840185830360208701526148268382614744565b925050600584015490506148398161467f565b61484660408701826136b6565b5060068401549050614857816147d1565b6148646060870182613bee565b50819250505092915050565b6000604082019050818103600083015261488a81856147eb565b90506148996020830184613616565b9392505050565b60006148ac828561456c565b91506148b8828461456c565b91508190509392505050565b7f4e6f7420796f7572204e46540000000000000000000000000000000000000000600082015250565b60006148fa600c83613444565b9150614905826148c4565b602082019050919050565b60006020820190508181036000830152614929816148ed565b9050919050565b7f596f7520646f6e2774206f776e20626f7468204e4654732e0000000000000000600082015250565b6000614966601883613444565b915061497182614930565b602082019050919050565b6000602082019050818103600083015261499581614959565b9050919050565b7f416e696d616c73206172652066726f6d20646966666572656e74207261636573600082015250565b60006149d2602083613444565b91506149dd8261499c565b602082019050919050565b60006020820190508181036000830152614a01816149c5565b9050919050565b6000604082019050614a1d6000830185613616565b614a2a6020830184613616565b9392505050565b600081519050919050565b600082825260208201905092915050565b6000614a5882614a31565b614a628185614a3c565b9350614a72818560208601613455565b614a7b8161347f565b840191505092915050565b6000608082019050614a9b6000830187613580565b614aa86020830186613580565b614ab56040830185613616565b8181036060830152614ac78184614a4d565b905095945050505050565b600081519050614ae1816133aa565b92915050565b600060208284031215614afd57614afc613374565b5b6000614b0b84828501614ad2565b91505092915050565b7f4e487b7100000000000000000000000000000000000000000000000000000000600052603160045260246000fdfea264697066735822122051bd63d50dd9ca77b656906c58f01050c7e245fe7ade1e1f6b5e8bfd4e5dab7164736f6c63430008180033",
  "linkReferences": {},
  "deployedLinkReferences": {}
}